:020000040800F2
:100000000028002009140008991300089F13000815
:10001000A5130008AB130008B1130008000000008E
:10002000000000000000000000000000B7130008FE
:10003000C313000800000000CF130008DB13000802
:1000400051140008511400085114000851140008FC
:1000500051140008511400085114000851140008EC
:1000600051140008511400085114000851140008DC
:1000700051140008511400085114000851140008CC
:1000800051140008511400085114000851140008BC
:1000900051140008511400085114000851140008AC
:1000A000511400085114000851140008511400089C
:1000B000E913000851140008000000005114000862
:1000C0005114000800000000000000005114000856
:1000D0000000000051140008511400080000000046
:1000E00051140008511400085114000800000000C9
:1000F0000000000000000000000000000000000000
:0C01000000000000000000005FF808F1A3
:10010C0010B5054C237833B9044B13B10448AFF345
:10011C0000800123237010BD64000020000000004B
:10012C00802A000808B5034B1BB103490348AFF301
:10013C00008008BD0000000068000020802A000834
:10014C0080B483B000AF7860094A7B6852F82330E2
:10015C00012B06D1064A7B68002142F823100123AB
:10016C0000E0002318460C37BD4680BC704700BF2A
:10017C008000002080B582B000AF00237B6078E067
:10018C00404A7B6852F823203F497B6841F8232082
:10019C003E4A7B6852F823203A497B6841F8232079
:1001AC0020213B4801F03AFC03461A46374B1A60B3
:1001BC004021374801F032FC03461A46334B5A6053
:1001CC008021334801F02AFC03461A462F4B9A60D3
:1001DC002C4A7B6852F823202C497B6851F8233039
:1001EC009A4243D1274A7B6852F8232026497B68E0
:1001FC0051F823309A4239D1234A7B6852F8232094
:10020C0024497B6851F823309A4217D01E4A7B68E8
:10021C0052F823201F497B6841F823201D4A7B6834
:10022C0052F82330002B21D11B4B4FF4FA721A6079
:10023C001A4A7B68012142F8231017E0164B1B6801
:10024C00013B154A1360144B1B68002B0ED1124B4B
:10025C004FF4FA721A600F4A7B6852F82330002B65
:10026C0004D10E4A7B68012142F823107B680133CC
:10027C007B607B68022B83DD00BF00BF0837BD4667
:10028C0080BD00BF0C0000201800002000000020E2
:10029C0000080140240000203000002080000020D5
:1002AC0080B582B000AF78607B68092B00F2B28118
:1002BC0001A252F823F000BFED0200083F03000832
:1002CC0091030008E30300083504000887040008C4
:1002DC00D90400082B0500087D050008CF0500088F
:1002EC0000224021CE4801F0B0FB00228021CC48F6
:1002FC0001F0ABFB00224FF48071C94801F0A5FB63
:10030C0000224FF40071C64801F09FFB00224FF40D
:10031C008061C34801F099FB00224FF40061C04892
:10032C0001F093FB01224FF48051BD4801F08DFB8D
:10033C0071E101224021BA4801F087FB00228021A3
:10034C00B74801F082FB00224FF48071B44801F0F1
:10035C007CFB01224FF40071B14801F076FB0122C5
:10036C004FF48061AE4801F070FB01224FF4006144
:10037C00AB4801F06AFB01224FF48051A84801F010
:10038C0064FB48E100224021A54801F05EFB0022FD
:10039C008021A34801F059FB01224FF48071A04841
:1003AC0001F053FB00224FF400719D4801F04DFB0E
:1003BC0000224FF480619A4801F047FB01224FF470
:1003CC000061974801F041FB00224FF480519448A2
:1003DC0001F03BFB1FE100224021914801F035FB6D
:1003EC00002280218E4801F030FB00224FF48071F6
:1003FC008B4801F02AFB00224FF40071884801F071
:10040C0024FB01224FF48061854801F01EFB012280
:10041C004FF40061824801F018FB00224FF4805128
:10042C007F4801F012FBF6E0012240217C4801F0EC
:10043C000CFB002280217A4801F007FB00224FF4CC
:10044C008071774801F001FB01224FF40071744870
:10045C0001F0FBFA01224FF48061714801F0F5FACA
:10046C0000224FF400616E4801F0EFFA00224FF4C5
:10047C0080516B4801F0E9FACDE000224021684838
:10048C0001F0E3FA01228021654801F0DEFA002236
:10049C004FF48071624801F0D8FA00224FF40071D9
:1004AC005F4801F0D2FA01224FF480615C4801F000
:1004BC00CCFA00224FF40061594801F0C6FA002230
:1004CC004FF48051564801F0C0FAA4E000224021BC
:1004DC00534801F0BAFA01228021514801F0B5FAD3
:1004EC0000224FF480714E4801F0AFFA00224FF415
:1004FC0000714B4801F0A9FA00224FF48061484882
:10050C0001F0A3FA00224FF40061454801F09DFA76
:10051C0000224FF48051424801F097FA7BE0002210
:10052C0040213F4801F091FA002280213C4801F023
:10053C008CFA00224FF48071394801F086FA0122BE
:10054C004FF40071364801F080FA01224FF48061BB
:10055C00334801F07AFA01224FF40061304801F07F
:10056C0074FA01224FF480512D4801F06EFA52E0DA
:10057C00002240212A4801F068FA002280212848F4
:10058C0001F063FA00224FF48071254801F05DFA06
:10059C0000224FF40071224801F057FA00224FF468
:1005AC0080611F4801F051FA00224FF400611C4891
:1005BC0001F04BFA00224FF48051194801F045FA32
:1005CC0029E000224021164801F03FFA0022802148
:1005DC00134801F03AFA00224FF48071104801F0F0
:1005EC0034FA00224FF400710D4801F02EFA01226A
:1005FC004FF480610A4801F028FA00224FF40061A0
:10060C00074801F022FA00224FF48051044801F00F
:10061C001CFA00E000BF00BF0837BD4680BD00BF1C
:10062C00000C014080B582B000AF7860424B1B6873
:10063C005A4203F0030302F0030258BF53427B609B
:10064C007B68032B72D801A252F823F069060008CC
:10065C009D060008D10600080507000800220221AB
:10066C00364801F0F2F901220421344801F0EDF989
:10067C0001220821314801F0E8F9012210212F480C
:10068C0001F0E3F92E4B1B681846FFF709FE4EE00C
:10069C0001220221294801F0D8F90022042127481F
:1006AC0001F0D3F901220821244801F0CEF90122EE
:1006BC001021224801F0C9F9214B5B681846FFF75D
:1006CC00EFFD34E0012202211C4801F0BEF90122A9
:1006DC0004211A4801F0B9F900220821174801F049
:1006EC00B4F901221021154801F0AFF9144B9B68A5
:1006FC001846FFF7D5FD1AE0012202210F4801F040
:10070C00A4F9012204210D4801F09FF901220821CE
:10071C000A4801F09AF900221021084801F095F9D5
:10072C00074BDB681846FFF7BBFD00E000BF00BFBE
:10073C000837BD4680BD00BF8C000020000801407A
:10074C003C00002080B500AF1D4B19681D4B83FB8E
:10075C0001239A10CB17D21A13469B0013445B004B
:10076C00CA1A194BDA60164B1B68164A82FB031225
:10077C009210DB17D31A144A9360144B1968114B5F
:10078C0083FB01239A10CB17D21A13469B001344F8
:10079C005B00CA1A0C4B5A600C4B1B68094A82FB53
:1007AC0003129210DB17D31A074A1360084B1B680D
:1007BC005A1C07490A601846FFF734FF00BF80BD7A
:1007CC00A8000020676666663C000020A40000209C
:1007DC008C00002080B500AF01220121074801F0F8
:1007EC0034F900220221054801F02FF900220421DE
:1007FC00024801F02AF900BF80BD00BF000C014087
:10080C0080B500AF00220121074801F01EF901223A
:10081C000221054801F019F900220421024801F0D7
:10082C0014F900BF80BD00BF000C014080B500AFC3
:10083C0000220121074801F008F900220221054895
:10084C0001F003F901220421024801F0FEF800BF77
:10085C0080BD00BF000C014080B500AF0122082113
:10086C00074801F0F2F800221021054801F0EDF8DC
:10087C0000222021024801F0E8F800BF80BD00BF33
:10088C00000C014080B500AF00220821074801F0A0
:10089C00DCF800221021054801F0D7F801222021B4
:1008AC00024801F0D2F800BF80BD00BF000C01402F
:1008BC0080B500AF00220821074801F0C6F80122DC
:1008CC001021054801F0C1F800222021024801F056
:1008DC00BCF800BF80BD00BF000C014080B400AF6D
:1008EC00054B1B68054A1360054B1B68054A1360D2
:1008FC0000BFBD4680BC70474C000020A400002007
:10090C0050000020A800002080B400AF064B1B68EC
:10091C00013B054A1360054B1B68013B034A1360FE
:10092C0000BFBD4680BC7047A4000020A80000207A
:10093C0080B500AF4E4B1B68052B06D0052B52DC47
:10094C00022B1CD0032B34D04DE0FFF743FF494B57
:10095C001B68002B06DC464B03221A60464B1B68B7
:10096C00444A13600020FFF7EBFB0346012B3CD1FC
:10097C003F4B0A221A60414B0A221A6035E0FFF7FE
:10098C003FFF3C4B1B68002B06DC394B05221A60E1
:10099C003B4B1B68374A13600020FFF7D1FB034623
:1009AC00012B24D1324B0A221A60344B0A221A60D2
:1009BC001DE0FFF73BFF2F4B1B68002B06DC2C4B7D
:1009CC0002221A602F4B1B682A4A13600020FFF783
:1009DC00B7FB0346012B0CD1254B0A221A60274B7F
:1009EC000A221A6005E000BF04E000BF02E000BF6D
:1009FC0000E000BF214B1B68052B13D0052B2DDC11
:100A0C00022B1DD0032B29D1FFF726FF1E4B1B6891
:100A1C00002B25DC194B02221A601A4B1B681A4A50
:100A2C0013601DE0FFF72EFF174B1B68002B19DC22
:100A3C00124B03221A60104B1B68134A136011E00F
:100A4C00FFF736FF104B1B68002B0DDC0B4B052200
:100A5C001A600B4B1B680C4A136005E000BF04E0E6
:100A6C0000BF02E000BF00E000BF00BF80BD00BFC0
:100A7C0034000020A400002050000020380000208A
:100A8C004C00002054000020A800002080B500AFCE
:100A9C009F4B1B680A3B032B00F2308101A252F8DA
:100AAC0023F000BFC10A0008050B00081D0C00084C
:100ABC00910B000800220121964800F0C6FF00228D
:100ACC000221944800F0C1FF00220421914800F05B
:100ADC00BCFF002208218F4800F0B7FF0022102134
:100AEC008C4800F0B2FF002220218A4800F0ADFFB4
:100AFC00874B0B221A6008E1874B01221A60874B47
:100B0C001B68874A13600121824800F0B6FF00225F
:100B1C000221804800F099FF002204217D4800F05A
:100B2C0094FF002208217B4800F08FFF0022102147
:100B3C00784800F08AFF2021764800F09EFF0020C4
:100B4C00FFF7FEFA0346012B02D1714B0D221A60FE
:100B5C000120FFF7F5FA0346012B04D16F4B1B68FC
:100B6C0001336E4A13600220FFF7EAFA0346012BA9
:100B7C0040F0C680694B1B686A4A1360674B0022C1
:100B8C001A60BDE0644B02221A60674B1B68644A12
:100B9C001360002201215F4800F057FF02215D48DD
:100BAC0000F06BFF002204215A4800F04EFF002297
:100BBC000821584800F049FF1021564800F05DFF0D
:100BCC0000222021534800F040FF0020FFF7B8FA24
:100BDC000346012B02D14E4B0C221A600120FFF769
:100BEC00AFFA0346012B04D14F4B1B6801334E4A1D
:100BFC0013600220FFF7A4FA0346012B40F0828019
:100C0C00494B1B68494A1360474B00221A6079E034
:100C1C00414B03221A60464B1B68414A1360002269
:100C2C0001213C4800F011FF00220221394800F05C
:100C3C000CFF0421374800F020FF0821354800F054
:100C4C001CFF00221021334800F0FFFE002220215F
:100C5C00304800F0FAFE0020FFF772FA0346012B31
:100C6C0033D1344B1A68314B1B681A442D4B1B681B
:100C7C009A420CDA2B4B1A682E4B19682B4B1B68BB
:100C8C000B44D21A2B4B1B6813442A4A1360294B72
:100C9C001A68264B1B681A44224B1B689A4206DDC5
:100CAC00244B1A68214B1B6813441E4A1360184BC3
:100CBC0005221A60204B03221A601A4B1B68164A35
:100CCC0013601C4B1B68164A13600120FFF738FA9F
:100CDC000346012B04D1164B1B680133144A1360D5
:100CEC000220FFF72DFA0346012B0DD1104B1B6888
:100CFC00104A13600E4B00221A6005E000BF04E09E
:100D0C0000BF02E000BF00E000BF00BF80BD00BF1D
:100D1C0034000020000C0140A400002090000020B2
:100D2C00A80000204C000020980000205400002057
:100D3C0094000020500000203800002080B500AF47
:100D4C0000F082FB00F02EF800F0B4F800F066F82A
:100D5C000F4801F0D7FAFFF7C1FD00230122002153
:100D6C000C4800F089F90123192200210A4800F0EF
:100D7C0083F9022319220521084800F07DF9032389
:100D8C0064226421064800F077F900F0D9F9FCE7F9
:100D9C00AC0000203D090008990A00085107000822
:100DAC001509000880B590B000AF07F11803282290
:100DBC000021184601F056FE3B1D00221A605A60B5
:100DCC009A60DA601A610223BB610123BB621023B3
:100DDC00FB6200237B6307F11803184600F066FEE4
:100DEC000346002B01D000F0D1F80F237B600023C9
:100DFC00BB600023FB6000233B6100237B613B1D38
:100E0C000021184601F0D2F80346002B01D000F067
:100E1C00BDF800BF4037BD4680BD000080B586B030
:100E2C0000AF07F1080300221A605A609A60DA607A
:100E3C003B4600221A605A601D4B4FF080421A60EC
:100E4C001B4B41F63F725A60194B00229A60184BAB
:100E5C000922DA60164B00221A61154B00229A61A6
:100E6C00134801F0FFF90346002B01D000F08EF877
:100E7C004FF48053BB6007F1080319460C4801F08E
:100E8C007DFB0346002B01D000F080F800233B6073
:100E9C0000237B603B461946054801F055FD03468F
:100EAC00002B01D000F072F800BF1837BD4680BD92
:100EBC00AC00002080B586B000AF07F1080300221B
:100ECC001A605A609A60DA60274B9B69264A43F095
:100EDC0004039361244B9B6903F004037B607B68E0
:100EEC00214B9B69204A43F0080393611E4B9B697D
:100EFC0003F008033B603B6800221E211B4800F0F6
:100F0C00A4FD002241F6FF71194800F09EFD1E233E
:100F1C00BB600123FB6000233B6102237B6107F173
:100F2C0008031946114800F0FFFBE023BB600023C7
:100F3C00FB6001233B6107F1080319460B4800F0E5
:100F4C00F3FB41F6FF73BB600123FB6000233B61A5
:100F5C0002237B6107F108031946054800F0E4FB06
:100F6C0000BF1837BD4680BD00100240000801408C
:100F7C00000C014080B582B000AF786000F00CF836
:100F8C00FFF7F8F800BF0837BD4680BD80B400AF4E
:100F9C0072B600BFFEE7000080B483B000AF002340
:100FAC007B605DE033497A6813469B0013449B00D9
:100FBC000B441B68002B50D02E497A6813469B00BB
:100FCC0013449B000B4404331B68002B32D129497A
:100FDC007A6813469B0013449B000B440C331B781C
:100FEC000133D8B223497A6813469B0013449B0003
:100FFC000B440C3302461A701E497A6813469B0048
:10100C0013449B000B4408331B68002B25D0194953
:10101C007A6813469B0013449B000B4408331968F1
:10102C0014487A6813469B0013449B000344043312
:10103C00196012E00F497A6813469B0013449B0019
:10104C000B4404331B68591E0A487A6813469B00EC
:10105C0013449B000344043319607B6801337B60A9
:10106C007B68272B9ED900BF00BF0C37BD4680BCC8
:10107C00704700BFF400002080B485B000AFF8606A
:10108C00B9607A603B6004E02A4B1B680133294A43
:10109C001360284B1A68284913469B0013449B0085
:1010AC000B441B68002B03D0224B1B68272BEBDD5A
:1010BC00204B1B68282B03D1204B0E221A7035E0D5
:1010CC001C4B1A681C4913469B0013449B000B4491
:1010DC00FA681A60174B1A68174913469B00134499
:1010EC009B000B440433BA681A60124B1A681249FD
:1010FC0013469B0013449B000B4408337A681A6018
:10110C000C4B1A680C4913469B0013449B000B4470
:10111C000C3300221A70074B1A68074913469B00C0
:10112C0013449B000B4410333A681A601437BD46C5
:10113C0080BC7047A0000020F40000209C00002020
:10114C0080B582B000AF00237B6000237B6042E05F
:10115C0025497A6813469B0013449B000B440C33BF
:10116C001B78002B34D020497A6813469B0013441B
:10117C009B000B441B6898471B497A6813469B00DD
:10118C0013449B000B440C331B78013BD8B216491B
:10119C007A6813469B0013449B000B440C330246A5
:1011AC001A7011497A6813469B0013449B000B4438
:1011BC0008331B68002B0BD10B497A6813469B0034
:1011CC0013449B000B4410331B68184600F00EF8B8
:1011DC007B6801337B607B68272BB9D900BF00BFCC
:1011EC000837BD4680BD00BFF4000020B0B485B008
:1011FC0000AF786037497A6813469B0013449B0014
:10120C000B441B68002B03D1334B10221A705BE08C
:10121C007B68FB6017E0FB685A1C2E48F9680B468C
:10122C009B000B449B0018442A4913469B00134413
:10123C009B000B4404461D460FCD0FC42B68236046
:10124C00FB680133FB60254B1B68013BFA689A4233
:10125C00E1DB224B1A681F4913469B0013449B0089
:10126C000B4400221A601D4B1A681A4913469B0046
:10127C0013449B000B44043300221A60174B1A686A
:10128C00144913469B0013449B000B440833002263
:10129C001A60124B1A680F4913469B0013449B00AB
:1012AC000B440C3300221A700C4B1A680949134674
:1012BC009B0013449B000B44103300221A60074B15
:1012CC001B68013B054A136000BF1437BD46B0BC18
:1012DC00704700BFF40000209C000020A0000020FC
:1012EC0080B485B000AF154B9B69144A43F00103E1
:1012FC009361124B9B6903F00103BB60BB680F4BFE
:10130C00DB690E4A43F08053D3610C4BDB6903F06D
:10131C0080537B607B680A4B5B68FB60FB6823F047
:10132C00E063FB60FB6843F08063FB60044AFB688E
:10133C00536000BF1437BD4680BC7047001002409C
:10134C000000014080B584B000AF78607B681B68FA
:10135C00B3F1804F13D10C4BDB690B4A43F0010303
:10136C00D361094BDB6903F00103FB60FB680022CE
:10137C0000211C2000F0A1F91C2000F0BAF900BFDC
:10138C001037BD4680BD00BF0010024080B400AFD6
:10139C00FEE780B400AFFEE780B400AFFEE780B498
:1013AC0000AFFEE780B400AFFEE780B400AF00BF33
:1013BC00BD4680BC704780B400AF00BFBD4680BC4A
:1013CC00704780B400AF00BFBD4680BC704780B58D
:1013DC0000AF00F07FF800BF80BD000080B500AF0B
:1013EC00024800F0DBFF00BF80BD00BFAC00002056
:1013FC0080B400AF00BFBD4680BC7047FFF7F8FF5C
:10140C000B480C490C4A002302E0D458C450043356
:10141C00C4188C42F9D3094A094C002301E013602B
:10142C000432A242FBD301F0F9FAFFF787FC7047B4
:10143C000000002064000020C42A00086400002082
:10144C0018040020FEE7000080B500AF084B1B68B5
:10145C00074A43F010031360032000F023F90F2018
:10146C0000F008F8FFF73CFF0023184680BD00BFD2
:10147C000020024080B582B000AF7860124B1A6831
:10148C00124B1B7819464FF47A73B3FBF1F3B2FB92
:10149C00F3F3184600F03BF90346002B01D001236F
:1014AC000EE07B680F2B0AD8002279684FF0FF30D2
:1014BC0000F003F9064A7B681360002300E0012367
:1014CC0018460837BD4680BD58000020600000203B
:1014DC005C00002080B400AF054B1B781A46054B0E
:1014EC001B681344034A136000BFBD4680BC7047A1
:1014FC00600000201404002080B400AF024B1B6875
:10150C001846BD4680BC70471404002080B485B0DA
:10151C0000AF78607B6803F00703FB600C4BDB6863
:10152C00BB60BA684FF6FF031340BB60FB681A023E
:10153C00BB68134343F0BF6343F40033BB60044AFE
:10154C00BB68D36000BF1437BD4680BC704700BF7A
:10155C0000ED00E080B400AF044BDB681B0A03F025
:10156C0007031846BD4680BC704700BF00ED00E085
:10157C0080B483B000AF0346FB7197F90730002BA2
:10158C000BDBFB7903F01F02064997F907305B0967
:10159C00012000FA02F241F8232000BF0C37BD46AF
:1015AC0080BC704700E100E080B483B000AF03461C
:1015BC003960FB7197F90730002B0ADB3B68DAB214
:1015CC000C4997F907301201D2B20B4483F800236F
:1015DC000AE03B68DAB20849FB7903F00F03043BDD
:1015EC001201D2B20B441A7600BF0C37BD4680BC38
:1015FC00704700BF00E100E000ED00E080B489B06E
:10160C0000AFF860B9607A60FB6803F00703FB6118
:10161C00FB69C3F10703042B28BF0423BB61FB69DF
:10162C000433062B02D9FB69033B00E000237B61EA
:10163C004FF0FF32BB6902FA03F3DA43BB681A407E
:10164C007B699A404FF0FF317B6901FA03F3D94370
:10165C007B680B40134318462437BD4680BC70474B
:10166C0080B582B000AF78607B68013BB3F1807FBE
:10167C0001D301230FE00A4A7B68013B53600F2121
:10168C004FF0FF30FFF790FF054B00229A60044BA0
:10169C0007221A60002318460837BD4680BD00BFDC
:1016AC0010E000E080B582B000AF78607868FFF79A
:1016BC002DFF00BF0837BD4680BD80B586B000AF9A
:1016CC000346B9607A60FB7300237B61FFF742FF2E
:1016DC0078617A68B9687869FFF790FF024697F9E4
:1016EC000F3011461846FFF75FFF00BF1837BD4695
:1016FC0080BD80B582B000AF0346FB7197F907300F
:10170C001846FFF735FF00BF0837BD4680BD80B5D2
:10171C0082B000AF78607868FFF7A2FF03461846E6
:10172C000837BD4680BD000080B48BB000AF786038
:10173C00396000237B6200233B6248E101227B6A13
:10174C0002FA03F3FB613B681B68FA691340BB6147
:10175C00BA69FB699A4240F037813B685B68A34ADF
:10176C0093425ED0A14A934275D8A14A934258D075
:10177C009F4A93426FD89F4A934252D09D4A9342BC
:10178C0069D89D4A93424CD09B4A934263D89B4A5A
:10179C00934246D0994A93425DD8122B2AD8122BE9
:1017AC0059D801A252F823F02F1800080918000884
:1017BC001B1800085D18000863180008631800085F
:1017CC006318000863180008631800086318000801
:1017DC0063180008631800086318000863180008F1
:1017EC006318000863180008631800081118000833
:1017FC0025180008824A934213D02CE03B68DB6822
:10180C003B6229E03B68DB6804333B6224E03B68C5
:10181C00DB6808333B621FE03B68DB680C333B62E0
:10182C001AE03B689B68002B02D104233B6213E057
:10183C003B689B68012B05D108233B627B68FA69E6
:10184C001A6109E008233B627B68FA695A6103E07C
:10185C0000233B6200E000BFBB69FF2B01D87B6813
:10186C0001E07B6804337B61BB69FF2B02D87B6A88
:10187C009B0002E07B6A083B9B003B617B691A681A
:10188C000F213B6901FA03F3DB431A40396A3B69C8
:10189C0001FA03F31A437B691A603B685B6803F037
:1018AC008053002B00F09080564B9B69554A43F0B7
:1018BC0001039361534B9B6903F00103BB60BB684D
:1018CC00514A7B6A9B08023352F82330FB607B6AD7
:1018DC0003F003039B000F2202FA03F3DB43FA68C5
:1018EC001340FB607B68494A93420DD07B68484AA1
:1018FC00934207D07B68474A934201D1022304E00C
:10190C00032302E0012300E000237A6A02F00302C1
:10191C0092009340FA681343FB603B497B6A9B0837
:10192C000233FA6841F823203B685B6803F48013A8
:10193C00002B06D0384B9A683749BB6913438B6030
:10194C0006E0354B9A68BB69DB43334913408B6027
:10195C003B685B6803F40013002B06D02E4BDA684F
:10196C002D49BB691343CB6006E02B4BDA68BB698E
:10197C00DB4329491340CB603B685B6803F40033BD
:10198C00002B06D0244B5A682349BB6913434B6088
:10199C0006E0214B5A68BB69DB431F4913404B607F
:1019AC003B685B6803F48033002B06D01A4B1A6833
:1019BC001949BB6913430B6006E0174B1A68BB69E6
:1019CC00DB43154913400B607B6A01337B623B6838
:1019DC001A687B6A22FA03F3002B7FF4AFAE00BFC8
:1019EC0000BF2C37BD4680BC704700BF00003210D2
:1019FC000000311000002210000021100000121015
:101A0C0000001110001002400000014000080140CD
:101A1C00000C0140001001400004014080B485B06E
:101A2C0000AF78600B467B807B689A687B8813409C
:101A3C00002B02D00123FB7301E00023FB73FB7B23
:101A4C0018461437BD4680BC704780B483B000AFD5
:101A5C0078600B467B8013467B707B78002B03D021
:101A6C007A887B681A6103E07B881A047B681A61A8
:101A7C0000BF0C37BD4680BC704780B485B000AF4A
:101A8C0078600B467B807B68DB68FB607A88FB6840
:101A9C0013401A04FB68D9437B880B401A437B68BC
:101AAC001A6100BF1437BD4680BC704780B586B044
:101ABC0000AF78607B68002B01D101236CE27B685E
:101ACC001B6803F00103002B00F08780924B5B68CE
:101ADC0003F00C03042B0CD08F4B5B6803F00C034E
:101AEC00082B12D18C4B5B6803F48033B3F5803F29
:101AFC000BD1894B1B6803F40033002B6CD07B6833
:101B0C005B68002B68D1012346E27B685B68B3F508
:101B1C00803F06D1804B1B687F4A43F480331360AF
:101B2C002EE07B685B68002B0CD17B4B1B687A4AE0
:101B3C0023F480331360784B1B68774A23F480239B
:101B4C0013601DE07B685B68B3F5A02F0CD1724B62
:101B5C001B68714A43F4802313606F4B1B686E4AF9
:101B6C0043F4803313600BE06B4B1B686A4A23F41D
:101B7C0080331360684B1B68674A23F4802313601F
:101B8C007B685B68002B13D0FFF7B6FC386108E06C
:101B9C00FFF7B2FC02463B69D31A642B01D903232D
:101BAC00FAE15D4B1B6803F40033002BF0D014E01A
:101BBC00FFF7A2FC386108E0FFF79EFC02463B6988
:101BCC00D31A642B01D90323E6E1534B1B6803F4AE
:101BDC000033002BF0D100E000BF7B681B6803F0E2
:101BEC000203002B63D04C4B5B6803F00C03002BFF
:101BFC000BD0494B5B6803F00C03082B1CD1464BF4
:101C0C005B6803F48033002B16D1434B1B6803F045
:101C1C000203002B05D07B681B69012B01D001232B
:101C2C00BAE13D4B1B6823F0F8027B685B69DB0073
:101C3C00394913430B603AE07B681B69002B20D0B9
:101C4C00364B01221A60FFF757FC386108E0FFF7AA
:101C5C0053FC02463B69D31A022B01D903239BE1A7
:101C6C002D4B1B6803F00203002BF0D02A4B1B6892
:101C7C0023F0F8027B685B69DB00274913430B6098
:101C8C0015E0264B00221A60FFF736FC386108E09D
:101C9C00FFF732FC02463B69D31A022B01D903230E
:101CAC007AE11D4B1B6803F00203002BF0D17B681B
:101CBC001B6803F00803002B3AD07B689B69002B50
:101CCC0019D0174B01221A60FFF716FC386108E097
:101CDC00FFF712FC02463B69D31A022B01D90323EE
:101CEC005AE10D4B5B6A03F00203002BF0D001208C
:101CFC0000F09AFA1CE00A4B00221A60FFF7FCFB7A
:101D0C0038610FE0FFF7F8FB02463B69D31A022B50
:101D1C0008D9032340E100BF0010024000004242FA
:101D2C00800442429E4B5B6A03F00203002BE9D114
:101D3C007B681B6803F00403002B00F0A6800023D3
:101D4C00FB75974BDB6903F08053002B0DD1944B43
:101D5C00DB69934A43F08053D361914BDB6903F009
:101D6C008053BB60BB680123FB758E4B1B6803F46F
:101D7C008073002B18D18B4B1B688A4A43F48073F9
:101D8C001360FFF7B9FB386108E0FFF7B5FB0246BB
:101D9C003B69D31A642B01D90323FDE0814B1B68EB
:101DAC0003F48073002BF0D07B68DB68012B06D129
:101DBC007B4B1B6A7A4A43F0010313622DE07B686C
:101DCC00DB68002B0CD1764B1B6A754A23F00103A0
:101DDC001362734B1B6A724A23F0040313621CE0F8
:101DEC007B68DB68052B0CD16D4B1B6A6C4A43F08E
:101DFC00040313626A4B1B6A694A43F001031362C2
:101E0C000BE0674B1B6A664A23F001031362644BB9
:101E1C001B6A634A23F0040313627B68DB68002BA4
:101E2C0015D0FFF769FB38610AE0FFF765FB024646
:101E3C003B69D31A41F28832934201D90323ABE0B8
:101E4C00574B1B6A03F00203002BEED014E0FFF794
:101E5C0053FB38610AE0FFF74FFB02463B69D31A8C
:101E6C0041F28832934201D9032395E04C4B1B6A13
:101E7C0003F00203002BEED1FB7D012B05D1484B67
:101E8C00DB69474A23F08053D3617B68DB69002B05
:101E9C0000F08180424B5B6803F00C03082B61D08F
:101EAC007B68DB69022B46D13F4B00221A60FFF79F
:101EBC0023FB386108E0FFF71FFB02463B69D31A8E
:101ECC00022B01D9032367E0354B1B6803F0007329
:101EDC00002BF0D17B681B6AB3F5803F08D1304BE7
:101EEC005B6823F400327B689B682D4913434B607D
:101EFC002B4B5B6823F474127B68196A7B685B6AF2
:101F0C000B43274913434B60274B01221A60FFF701
:101F1C00F3FA386108E0FFF7EFFA02463B69D31A8F
:101F2C00022B01D9032337E01D4B1B6803F0007310
:101F3C00002BF0D02FE01C4B00221A60FFF7DCFACC
:101F4C00386108E0FFF7D8FA02463B69D31A022B36
:101F5C0001D9032320E0124B1B6803F00073002B04
:101F6C00F0D118E07B68DB69012B01D1012313E070
:101F7C000B4B5B68FB60FB6803F480327B681B6A6D
:101F8C009A4206D1FB6803F470127B685B6A9A4232
:101F9C0001D0012300E0002318461837BD4680BD50
:101FAC0000100240007000406000424280B584B0D6
:101FBC0000AF786039607B68002B01D10123D0E041
:101FCC006A4B1B6803F007033A689A4210D9674BB7
:101FDC001B6823F0070265493B6813430B60634B96
:101FEC001B6803F007033A689A4201D00123B8E05A
:101FFC007B681B6803F00203002B20D07B681B68F6
:10200C0003F00403002B05D0594B5B68584A43F48A
:10201C00E06353607B681B6803F00803002B05D05A
:10202C00534B5B68524A43F460535360504B5B68AC
:10203C0023F0F0027B689B684D4913434B607B682F
:10204C001B6803F00103002B40D07B685B68012BFD
:10205C0007D1474B1B6803F40033002B15D1012328
:10206C007FE07B685B68022B07D1414B1B6803F058
:10207C000073002B09D1012373E03D4B1B6803F067
:10208C000203002B01D101236BE0394B5B6823F079
:10209C0003027B685B68364913434B60FFF72CFAED
:1020AC00F8600AE0FFF728FA0246FB68D31A41F2FF
:1020BC008832934201D9032353E02D4B5B6803F024
:1020CC000C027B685B689B009A42EBD1274B1B6828
:1020DC0003F007033A689A4210D2244B1B6823F092
:1020EC00070222493B6813430B60204B1B6803F02B
:1020FC0007033A689A4201D0012332E07B681B68DF
:10210C0003F00403002B08D0194B5B6823F4E06246
:10211C007B68DB68164913434B607B681B6803F0D4
:10212C000803002B09D0124B5B6823F460527B68C8
:10213C001B69DB000E4913434B6000F021F802468B
:10214C000B4B5B681B0903F00F030A49CB5C22FAAB
:10215C0003F3094A1360094B1B681846FFF78AF909
:10216C00002318461037BD4680BD00BF002002403A
:10217C0000100240982A0008580000205C00002043
:10218C0080B487B000AF0023FB600023BB6000234A
:10219C007B6100237B6000233B611E4B5B68FB6013
:1021AC00FB6803F00C03042B02D0082B03D027E0B0
:1021BC00194B3B6127E0FB689B0C03F00F03174A9C
:1021CC00D35C7B60FB6803F48033002B10D0114B85
:1021DC005B685B0C03F00103114AD35CBB607B684A
:1021EC000D4A02FB03F2BB68B2FBF3F37B6104E024
:1021FC007B680C4A02FB03F37B617B693B6102E069
:10220C00054B3B6100BF3B6918461C37BD4680BC83
:10221C00704700BF0010024000127A00A82A000884
:10222C00B82A000800093D0080B485B000AF786082
:10223C000A4B1B680A4AA2FB03235B0A7A6802FB5F
:10224C0003F3FB6000BFFB685A1EFA60002BF9D148
:10225C0000BF00BF1437BD4680BC7047580000203B
:10226C00D34D621080B582B000AF78607B68002BD4
:10227C0001D1012341E07B6893F83D30DBB2002BA8
:10228C0006D17B68002283F83C207868FFF75AF867
:10229C007B68022283F83D207B681A687B680433D4
:1022AC001946104600F056FA7B68012283F8462046
:1022BC007B68012283F83E207B68012283F83F2053
:1022CC007B68012283F840207B68012283F841203F
:1022DC007B68012283F842207B68012283F843202B
:1022EC007B68012283F844207B68012283F8452017
:1022FC007B68012283F83D20002318460837BD4631
:10230C0080BD000080B485B000AF78607B6893F826
:10231C003D30DBB2012B01D0012335E07B6802227A
:10232C0083F83D207B681B68DA687B681B6842F089
:10233C000102DA607B681B68164A934209D07B68FD
:10234C001B68B3F1804F04D07B681B68124A934220
:10235C0011D17B681B689B6803F00703FB60FB686B
:10236C00062B10D07B681B681A687B681B6842F0D0
:10237C0001021A6007E07B681B681A687B681B689F
:10238C0042F001021A60002318461437BD4680BC87
:10239C00704700BF002C01400004004080B584B0A1
:1023AC0000AF78607B681B68DB68FB607B681B6830
:1023BC001B69BB60BB6803F00203002B20D0FB68D9
:1023CC0003F00203002B1BD07B681B686FF002022A
:1023DC001A617B6801221A777B681B689B6903F082
:1023EC000303002B03D0786800F098F905E07868B7
:1023FC0000F08BF9786800F09AF97B6800221A7764
:10240C00BB6803F00403002B20D0FB6803F004032B
:10241C00002B1BD07B681B686FF004021A617B6871
:10242C0002221A777B681B689B6903F44073002BAC
:10243C0003D0786800F072F905E0786800F065F96F
:10244C00786800F074F97B6800221A77BB6803F097
:10245C000803002B20D0FB6803F00803002B1BD0D3
:10246C007B681B686FF008021A617B6804221A777C
:10247C007B681B68DB6903F00303002B03D07868CF
:10248C0000F04CF905E0786800F03FF9786800F04E
:10249C004EF97B6800221A77BB6803F01003002BFF
:1024AC0020D0FB6803F01003002B1BD07B681B684B
:1024BC006FF010021A617B6808221A777B681B6820
:1024CC00DB6903F44073002B03D0786800F026F925
:1024DC0005E0786800F019F9786800F028F97B6855
:1024EC0000221A77BB6803F00103002B0CD0FB68A9
:1024FC0003F00103002B07D07B681B686FF001020F
:10250C001A617868FEF736FDBB6803F08003002B78
:10251C000CD0FB6803F08003002B07D07B681B6892
:10252C006FF080021A61786800F06FFABB6803F0F4
:10253C004003002B0CD0FB6803F04003002B07D0AA
:10254C007B681B686FF040021A61786800F0F8F83D
:10255C00BB6803F02003002B0CD0FB6803F02003B6
:10256C00002B07D07B681B686FF020021A6178681B
:10257C0000F042FA00BF1037BD4680BD80B584B074
:10258C0000AF786039600023FB737B6893F83C30B4
:10259C00012B01D10223B4E07B68012283F83C209B
:1025AC007B68022283F83D207B681B689B68BB60BC
:1025BC00BB6823F07703BB60BB6823F47F43BB602D
:1025CC007B681B68BA689A603B681B68B3F5005F50
:1025DC003ED0B3F5005F00F28780B3F5805F00F06A
:1025EC008680B3F5805F7FD8702B1AD0702B7BD888
:1025FC00602B50D0602B77D8502B3CD0502B73D8FD
:10260C00402B58D0402B6FD8302B64D0302B6BD84C
:10261C00202B60D0202B67D8002B5CD0102B5AD0ED
:10262C0062E07B6818683B6899683B685A683B684D
:10263C00DB6800F06AF97B681B689B68BB60BB6851
:10264C0043F07703BB607B681B68BA689A604FE005
:10265C007B6818683B6899683B685A683B68DB681C
:10266C0000F053F97B681B689A687B681B6842F41E
:10267C0080429A603CE07B6818683B6859683B680C
:10268C00DB681A4600F0CAF87B681B6850211846B4
:10269C0000F021F92CE07B6818683B6859683B68AE
:1026AC00DB681A4600F0E8F87B681B686021184666
:1026BC0000F011F91CE07B6818683B6859683B68AE
:1026CC00DB681A4600F0AAF87B681B6840211846A4
:1026DC0000F001F90CE07B681A683B681B6819462E
:1026EC00104600F0F8F803E00123FB7300E000BF94
:1026FC007B68012283F83D207B68002283F83C2014
:10270C00FB7B18461037BD4680BD80B483B000AF4C
:10271C00786000BF0C37BD4680BC704780B483B076
:10272C0000AF786000BF0C37BD4680BC704780B4EA
:10273C0083B000AF786000BF0C37BD4680BC7047DB
:10274C0080B483B000AF786000BF0C37BD4680BC4E
:10275C007047000080B485B000AF786039607B684A
:10276C001B68FB607B682B4A934207D07B68B3F1F4
:10277C00804F03D07B68284A934208D1FB6823F032
:10278C007003FB603B685B68FA681343FB607B6813
:10279C00204A934207D07B68B3F1804F03D07B680B
:1027AC001D4A934208D1FB6823F44073FB603B68DD
:1027BC00DB68FA681343FB60FB6823F080023B681C
:1027CC005B691343FB607B68FA681A603B689A6824
:1027DC007B68DA623B681A687B689A627B680D4A90
:1027EC00934203D13B681A697B681A637B680122A8
:1027FC005A617B681B6903F00103002B05D07B68D1
:10280C001B6923F001027B681A6100BF1437BD46B7
:10281C0080BC7047002C01400004004080B487B09D
:10282C0000AFF860B9607A60FB681B6A7B61FB687B
:10283C001B6A23F00102FB681A62FB689B693B610F
:10284C003B6923F0F0033B617B681B013A6913433E
:10285C003B617B6923F00A037B617A69BB68134394
:10286C007B61FB683A699A61FB687A691A6200BFFE
:10287C001C37BD4680BC704780B487B000AFF86091
:10288C00B9607A60FB681B6A7B61FB681B6A23F08A
:10289C001002FB681A62FB689B693B613B6923F47D
:1028AC0070433B617B681B033A6913433B617B6953
:1028BC0023F0A0037B61BB681B017A6913437B6126
:1028CC00FB683A699A61FB687A691A6200BF1C3727
:1028DC00BD4680BC704780B485B000AF786039606D
:1028EC007B689B68FB60FB6823F07003FB603A68B5
:1028FC00FB68134343F00703FB607B68FA689A603C
:10290C0000BF1437BD4680BC704780B487B000AFA1
:10291C00F860B9607A603B60FB689B687B617B699F
:10292C0023F47F437B613B681A027B681A43BB68C4
:10293C0013437A6913437B61FB687A699A6000BF21
:10294C001C37BD4680BC704780B485B000AF786042
:10295C0039607B6893F83C30012B01D1022341E0B4
:10296C007B68012283F83C207B68022283F83D209F
:10297C007B681B685B68FB607B681B689B68BB6043
:10298C00FB6823F07003FB603B681B68FA68134319
:10299C00FB607B681B68FA685A607B681B68144A8A
:1029AC00934209D07B681B68B3F1804F04D07B68DD
:1029BC001B68104A93420CD1BB6823F08003BB60A8
:1029CC003B685B68BA681343BB607B681B68BA687A
:1029DC009A607B68012283F83D207B68002283F893
:1029EC003C20002318461437BD4680BC704700BFFE
:1029FC00002C01400004004080B483B000AF78602C
:102A0C0000BF0C37BD4680BC704780B483B000AFAC
:102A1C00786000BF0C37BD4680BC704770B500268F
:102A2C000C4D0D4C641BA410A64209D100F022F8E9
:102A3C0000260A4D0A4C641BA410A64205D170BD99
:102A4C0055F8043B98470136EEE755F8043B984798
:102A5C000136F2E7BC2A0008BC2A0008BC2A000890
:102A6C00C02A000803460244934200D1704703F881
:102A7C00011BF9E7F8B500BFF8BC08BC9E467047CF
:0C2A8C00F8B500BFF8BC08BC9E467047BF
:102A98000000000000000000010203040607080906
:102AA80002030405060708090A0B0C0D0E0F101087
:042AB8000102000017
:042ABC0031010008DC
:042AC0000D010008FC
:102AC40001000000010000000100000001000000FE
:102AD40001000000010000000100000001000000EE
:102AE40001000000010000000100000001000000DE
:102AF400F4010000050000000300000001000000D4
:102B040002000000030000000000000005000000B7
:102B1400030000000200000000127A001000000010
:042B240001000000AC
:0400000508001409D2
:00000001FF
