:020000040800F2
:100000000028002079130008091300080F130008C6
:10001000151300081B13000821130008000000003E
:10002000000000000000000000000000271300088E
:1000300033130008000000003F1300084B130008B2
:10004000C1130008C1130008C1130008C113000840
:10005000C1130008C1130008C1130008C113000830
:10006000C1130008C1130008C1130008C113000820
:10007000C1130008C1130008C1130008C113000810
:10008000C1130008C1130008C1130008C113000800
:10009000C1130008C1130008C1130008C1130008F0
:1000A000C1130008C1130008C1130008C1130008E0
:1000B00059130008C113000800000000C113000814
:1000C000C11300080000000000000000C113000878
:1000D00000000000C1130008C11300080000000068
:1000E000C1130008C1130008C1130008000000007C
:1000F0000000000000000000000000000000000000
:0C01000000000000000000005FF808F1A3
:10010C0010B5054C237833B9044B13B10448AFF345
:10011C0000800123237010BD6C0000200000000043
:10012C00382A000808B5034B1BB103490348AFF349
:10013C00008008BD0000000070000020382A000874
:10014C0080B483B000AF7860094A7B6852F82330E2
:10015C00012B06D1064A7B68002142F823100123AB
:10016C0000E0002318460C37BD4680BC704700BF2A
:10017C008800002080B582B000AF00237B6078E05F
:10018C00404A7B6852F823203F497B6841F8232082
:10019C003E4A7B6852F823203A497B6841F8232079
:1001AC0020213B4801F016FC03461A46374B1A60D7
:1001BC004021374801F00EFC03461A46334B5A6077
:1001CC008021334801F006FC03461A462F4B9A60F7
:1001DC002C4A7B6852F823202C497B6851F8233039
:1001EC009A4243D1274A7B6852F8232026497B68E0
:1001FC0051F823309A4239D1234A7B6852F8232094
:10020C0024497B6851F823309A4217D01E4A7B68E8
:10021C0052F823201F497B6841F823201D4A7B6834
:10022C0052F82330002B21D11B4B4FF4FA721A6079
:10023C001A4A7B68012142F8231017E0164B1B6801
:10024C00013B154A1360144B1B68002B0ED1124B4B
:10025C004FF4FA721A600F4A7B6852F82330002B65
:10026C0004D10E4A7B68012142F823107B680133CC
:10027C007B607B68022B83DD00BF00BF0837BD4667
:10028C0080BD00BF0C0000201800002000000020E2
:10029C0000080140240000203000002088000020CD
:1002AC0080B582B000AF78607B68092B00F2B28118
:1002BC0001A252F823F000BFED0200083F03000832
:1002CC0091030008E30300083504000887040008C4
:1002DC00D90400082B0500087D050008CF0500088F
:1002EC0000224021CE4801F08CFB00228021CC481A
:1002FC0001F087FB00224FF48071C94801F081FBAB
:10030C0000224FF40071C64801F07BFB00224FF431
:10031C008061C34801F075FB00224FF40061C048B6
:10032C0001F06FFB01224FF48051BD4801F069FBD5
:10033C0071E101224021BA4801F063FB00228021C7
:10034C00B74801F05EFB00224FF48071B44801F015
:10035C0058FB01224FF40071B14801F052FB01220D
:10036C004FF48061AE4801F04CFB01224FF4006168
:10037C00AB4801F046FB01224FF48051A84801F034
:10038C0040FB48E100224021A54801F03AFB002245
:10039C008021A34801F035FB01224FF48071A04865
:1003AC0001F02FFB00224FF400719D4801F029FB56
:1003BC0000224FF480619A4801F023FB01224FF494
:1003CC000061974801F01DFB00224FF480519448C6
:1003DC0001F017FB1FE100224021914801F011FBB5
:1003EC00002280218E4801F00CFB00224FF480711A
:1003FC008B4801F006FB00224FF40071884801F095
:10040C0000FB01224FF48061854801F0FAFA0122C9
:10041C004FF40061824801F0F4FA00224FF480514D
:10042C007F4801F0EEFAF6E0012240217C4801F011
:10043C00E8FA002280217A4801F0E3FA00224FF416
:10044C008071774801F0DDFA01224FF40071744895
:10045C0001F0D7FA01224FF48061714801F0D1FA12
:10046C0000224FF400616E4801F0CBFA00224FF4E9
:10047C0080516B4801F0C5FACDE00022402168485C
:10048C0001F0BFFA01228021654801F0BAFA00227E
:10049C004FF48071624801F0B4FA00224FF40071FD
:1004AC005F4801F0AEFA01224FF480615C4801F024
:1004BC00A8FA00224FF40061594801F0A2FA002278
:1004CC004FF48051564801F09CFAA4E000224021E0
:1004DC00534801F096FA01228021514801F091FA1B
:1004EC0000224FF480714E4801F08BFA00224FF439
:1004FC0000714B4801F085FA00224FF480614848A6
:10050C0001F07FFA00224FF40061454801F079FABE
:10051C0000224FF48051424801F073FA7BE0002234
:10052C0040213F4801F06DFA002280213C4801F047
:10053C0068FA00224FF48071394801F062FA012206
:10054C004FF40071364801F05CFA01224FF48061DF
:10055C00334801F056FA01224FF40061304801F0A3
:10056C0050FA01224FF480512D4801F04AFA52E022
:10057C00002240212A4801F044FA00228021284818
:10058C0001F03FFA00224FF48071254801F039FA4E
:10059C0000224FF40071224801F033FA00224FF48C
:1005AC0080611F4801F02DFA00224FF400611C48B5
:1005BC0001F027FA00224FF48051194801F021FA7A
:1005CC0029E000224021164801F01BFA002280216C
:1005DC00134801F016FA00224FF48071104801F014
:1005EC0010FA00224FF400710D4801F00AFA0122B2
:1005FC004FF480610A4801F004FA00224FF40061C4
:10060C00074801F0FEF900224FF48051044801F034
:10061C00F8F900E000BF00BF0837BD4680BD00BF41
:10062C00000C014080B582B000AF7860424B1B6873
:10063C005A4203F0030302F0030258BF53427B609B
:10064C007B68032B72D801A252F823F069060008CC
:10065C009D060008D10600080507000800220221AB
:10066C00364801F0CEF901220421344801F0C9F9D1
:10067C0001220821314801F0C4F9012210212F4830
:10068C0001F0BFF92E4B1B681846FFF709FE4EE030
:10069C0001220221294801F0B4F900220421274843
:1006AC0001F0AFF901220821244801F0AAF9012236
:1006BC001021224801F0A5F9214B5B681846FFF781
:1006CC00EFFD34E0012202211C4801F09AF90122CD
:1006DC0004211A4801F095F900220821174801F06D
:1006EC0090F901221021154801F08BF9144B9B68ED
:1006FC001846FFF7D5FD1AE0012202210F4801F040
:10070C0080F9012204210D4801F07BF90122082116
:10071C000A4801F076F900221021084801F071F91D
:10072C00074BDB681846FFF7BBFD00E000BF00BFBE
:10073C000837BD4680BD00BF940000200008014072
:10074C004400002080B500AF1D4B19681D4B83FB86
:10075C0001239A10CB17D21A13469B0013445B004B
:10076C00CA1A194BDA60164B1B68164A82FB031225
:10077C009210DB17D31A144A9360144B1968114B5F
:10078C0083FB01239A10CB17D21A13469B001344F8
:10079C005B00CA1A0C4B5A600C4B1B68094A82FB53
:1007AC0003129210DB17D31A074A1360084B1B680D
:1007BC005A1C07490A601846FFF734FF00BF80BD7A
:1007CC003800002067666666440000203400002074
:1007DC009400002080B500AF01220121074801F0F0
:1007EC0010F900220221054801F00BF90022042126
:1007FC00024801F006F900BF80BD00BF000C0140AB
:10080C0080B500AF00220121074801F0FAF801225F
:10081C000221054801F0F5F800220421024801F0FC
:10082C00F0F800BF80BD00BF000C014080B500AFE8
:10083C0000220121074801F0E4F8002202210548BA
:10084C0001F0DFF801220421024801F0DAF800BFC0
:10085C0080BD00BF000C014080B500AF0122082113
:10086C00074801F0CEF800221021054801F0C9F824
:10087C0000222021024801F0C4F800BF80BD00BF57
:10088C00000C014080B500AF00220821074801F0A0
:10089C00B8F800221021054801F0B3F801222021FC
:1008AC00024801F0AEF800BF80BD00BF000C014053
:1008BC0080B500AF00220821074801F0A2F8012200
:1008CC001021054801F09DF800222021024801F07A
:1008DC0098F800BF80BD00BF000C014080B500AF90
:1008EC00FFF730FF594B1B680133584A1360584BC4
:1008FC001B680133564A1360564B1B68052B06D0F8
:10090C00052B58DC022B1ED0032B38D053E0FFF7FD
:10091C0061FF4E4B1B68042B08DD4E4B03221A6003
:10092C004D4B03221A60494B00221A600020FFF73E
:10093C0007FC0346012B40D1464B0A221A60474B59
:10094C000A221A6039E0FFF75BFF404B1B68012B52
:10095C0008DD404B05221A603F4B05221A603B4BC9
:10096C0000221A600020FFF7EBFB0346012B26D177
:10097C00384B0A221A60394B0A221A601FE0FFF723
:10098C0055FF324B1B68022B08DD324B02221A60DA
:10099C00314B02221A602D4B00221A600020FFF707
:1009AC00CFFB0346012B0CD12A4B0A221A602B4B8E
:1009BC000A221A6005E000BF04E000BF02E000BF9D
:1009CC0000E000BF254B1B68052B15D0052B33DC35
:1009DC00022B21D0032B2FD1FFF73EFF1C4B1B68A2
:1009EC00022B2BDD1D4B02221A601D4B02221A60BA
:1009FC00174B00221A6021E0FFF744FF144B1B68D1
:100A0C00042B1DDD154B03221A60154B03221A60B3
:100A1C000F4B00221A6013E0FFF74AFF0C4B1B68C8
:100A2C00012B0FDD0D4B05221A600D4B05221A60B0
:100A3C00074B00221A6005E000BF04E000BF02E093
:100A4C0000BF00E000BF00BF80BD00BF98000020C9
:100A5C009C0000203C0000203400002040000020BE
:100A6C003800002080B500AFA64B1B680A3B032B57
:100A7C0000F23F8101A252F823F000BF990A00084E
:100A8C00DD0A0008090C0008730B00080022012184
:100A9C009D4800F0B6FF002202219B4800F0B1FFF8
:100AAC0000220421984800F0ACFF0022082196484F
:100ABC0000F0A7FF00221021934800F0A2FF0022B3
:100ACC002021914800F09DFF8E4B0B221A6017E1FC
:100ADC008E4B01221A608E4B1B688E4A1360FFF7F7
:100AEC0031FE0121884800F0A4FF00220221864833
:100AFC0000F087FF00220421834800F082FF0022CF
:100B0C000821814800F07DFF002210217E4800F072
:100B1C0078FF20217C4800F08CFFFA2000F0AEFC1E
:100B2C000020FFF70DFB0346012B02D1754B0D2264
:100B3C001A600120FFF704FB0346012B04D1744B10
:100B4C001B680133724A13600220FFF7F9FA03465F
:100B5C00012B40F0D0806E4B1B686F4A13606C4BBE
:100B6C0000221A60C7E0694B02221A606B4B1B68AB
:100B7C00684A1360FFF7E6FD00220121624800F08D
:100B8C0040FF0221604800F054FF002204215E481F
:100B9C0000F037FF002208215B4800F032FF1021E3
:100BAC00594800F046FF00222021574800F029FF49
:100BBC00FA2000F063FC0020FFF7C2FA0346012B79
:100BCC0002D1504B0C221A600120FFF7B9FA0346F0
:100BDC00012B04D1514B1B680133504A1360022086
:100BEC00FFF7AEFA0346012B40F087804B4B1B6896
:100BFC004B4A1360494B00221A607EE0434B0322A0
:100C0C001A60484B1B68434A1360FFF79BFD002298
:100C1C0001213D4800F0F5FE002202213A4800F087
:100C2C00F0FE0421384800F004FF0821364800F09B
:100C3C0000FF00221021344800F0E3FE00222021A6
:100C4C00314800F0DEFEFA2000F018FC0020FFF71F
:100C5C0077FA0346012B33D1334B1A68304B1B68A0
:100C6C001A442D4B1B689A420CDA2B4B1A682E4BEC
:100C7C0019682B4B1B680B44D21A2B4B1B68134463
:100C8C00294A1360284B1A68254B1B681A44224BBF
:100C9C001B689A4206DD244B1A68214B1B681344CF
:100CAC001D4A1360174B05221A60204B03221A6051
:100CBC00194B1B68154A13601B4B1B68154A1360B4
:100CCC000120FFF73DFA0346012B04D1154B1B689D
:100CDC000133144A13600220FFF732FA0346012B4A
:100CEC000DD1104B1B68104A13600E4B00221A607A
:100CFC0005E000BF04E000BF02E000BF00E000BF61
:100D0C0000BF80BD3C000020000C014034000020DE
:100D1C00A00000203800002054000020A800002073
:100D2C005C000020A400002058000020400000209F
:100D3C0080B500AF00F040FB00F024F800F0AAF8FA
:100D4C0000F05CF80B4801F0B9FA00236422002192
:100D5C00094800F081F9012364220021074800F0C2
:100D6C007BF9022332220021054800F075F900F0CE
:100D7C00CDF9FCE7B0000020E9080008710A000872
:100D8C005107000880B590B000AF07F11803282276
:100D9C000021184601F042FE3B1D00221A605A60E9
:100DAC009A60DA601A610223BB610123BB621023D3
:100DBC00FB6200237B6307F11803184600F052FE18
:100DCC000346002B01D000F0D1F80F237B600023E9
:100DDC00BB600023FB6000233B6100237B613B1D58
:100DEC000021184601F0BEF80346002B01D000F09C
:100DFC00BDF800BF4037BD4680BD000080B586B051
:100E0C0000AF07F1080300221A605A609A60DA609A
:100E1C003B4600221A605A601D4B4FF080421A600C
:100E2C001B4B41F63F725A60194B00229A60184BCB
:100E3C000922DA60164B00221A61154B00229A61C6
:100E4C00134801F0EBF90346002B01D000F08EF8AB
:100E5C004FF48053BB6007F1080319460C4801F0AE
:100E6C0069FB0346002B01D000F080F800233B60A7
:100E7C0000237B603B461946054801F041FD0346C3
:100E8C00002B01D000F072F800BF1837BD4680BDB2
:100E9C00B000002080B586B000AF07F10803002237
:100EAC001A605A609A60DA60274B9B69264A43F0B5
:100EBC0004039361244B9B6903F004037B607B6800
:100ECC00214B9B69204A43F0080393611E4B9B699D
:100EDC0003F008033B603B6800221E211B4800F016
:100EEC0090FD002241F6FF71194800F08AFD1E2387
:100EFC00BB600123FB6000233B6102237B6107F194
:100F0C0008031946114800F0EBFBE023BB600023FB
:100F1C00FB6001233B6107F1080319460B4800F005
:100F2C00DFFB41F6FF73BB600123FB6000233B61D9
:100F3C0002237B6107F108031946054800F0D0FB3A
:100F4C0000BF1837BD4680BD0010024000080140AC
:100F5C00000C014080B582B000AF786000F00CF856
:100F6C00FFF708F900BF0837BD4680BD80B400AF5D
:100F7C0072B600BFFEE7000080B483B000AF002360
:100F8C007B605DE033497A6813469B0013449B00F9
:100F9C000B441B68002B50D02E497A6813469B00DB
:100FAC0013449B000B4404331B68002B32D129499A
:100FBC007A6813469B0013449B000B440C331B783C
:100FCC000133D8B223497A6813469B0013449B0023
:100FDC000B440C3302461A701E497A6813469B0068
:100FEC0013449B000B4408331B68002B25D0194974
:100FFC007A6813469B0013449B000B440833196812
:10100C0014487A6813469B0013449B000344043332
:10101C00196012E00F497A6813469B0013449B0039
:10102C000B4404331B68591E0A487A6813469B000C
:10103C0013449B000344043319607B6801337B60C9
:10104C007B68272B9ED900BF00BF0C37BD4680BCE8
:10105C00704700BFF800002080B487B000AFF86084
:10106C00B9607A603B600023FB7502E0FB7D0133C5
:10107C00FB75FA7D234913469B0013449B000B44DC
:10108C001B68002B02D0FB7D272BEFD9FB7D282B77
:10109C0003D11D4B0E221A7030E0FA7D194913460C
:1010AC009B0013449B000B44FA681A60FA7D1549A7
:1010BC0013469B0013449B000B440433BA681A601C
:1010CC00FA7D104913469B0013449B000B440833D4
:1010DC007A681A60FA7D0B4913469B0013449B00F7
:1010EC000B440C3300221A70FA7D064913469B0000
:1010FC0013449B000B4410333A681A601C37BD46EE
:10110C0080BC7047F8000020AC00002080B582B095
:10111C0000AF00237B6000237B6042E025497A68A6
:10112C0013469B0013449B000B440C331B78002B81
:10113C0034D020497A6813469B0013449B000B441F
:10114C001B6898471B497A6813469B0013449B0005
:10115C000B440C331B78013BD8B216497A68134602
:10116C009B0013449B000B440C3302461A7011492C
:10117C007A6813469B0013449B000B4408331B688E
:10118C00002B0BD10B497A6813469B0013449B0030
:10119C000B4410331B68184600F00EF87B680133C3
:1011AC007B607B68272BB9D900BF00BF0837BD46D1
:1011BC0080BD00BFF800002080B483B000AF786021
:1011CC0021497A6813469B0013449B000B441B680F
:1011DC00002B03D11D4B10221A7030E01A497A688B
:1011EC0013469B0013449B000B4400221A601649C3
:1011FC007A6813469B0013449B000B440433002273
:10120C001A6011497A6813469B0013449B000B44E7
:10121C00083300221A600C497A6813469B00134469
:10122C009B000B440C3300221A7007497A68134652
:10123C009B0013449B000B44103300221A6000BF28
:10124C000C37BD4680BC7047F8000020AC00002075
:10125C0080B485B000AF154B9B69144A43F0010371
:10126C009361124B9B6903F00103BB60BB680F4B8E
:10127C00DB690E4A43F08053D3610C4BDB6903F0FE
:10128C0080537B607B680A4B5B68FB60FB6823F0D8
:10129C00E063FB60FB6843F08063FB60044AFB681F
:1012AC00536000BF1437BD4680BC7047001002402D
:1012BC000000014080B584B000AF78607B681B688B
:1012CC00B3F1804F13D10C4BDB690B4A43F0010394
:1012DC00D361094BDB6903F00103FB60FB6800225F
:1012EC0000211C2000F0C5F91C2000F0DEF900BF25
:1012FC001037BD4680BD00BF0010024080B400AF67
:10130C00FEE780B400AFFEE780B400AFFEE780B428
:10131C0000AFFEE780B400AFFEE780B400AF00BFC3
:10132C00BD4680BC704780B400AF00BFBD4680BCDA
:10133C00704780B400AF00BFBD4680BC704780B51D
:10134C0000AF00F07FF800BF80BD000080B500AF9B
:10135C00024800F0FFFF00BF80BD00BFB0000020BE
:10136C0080B400AF00BFBD4680BC7047FFF7F8FFEC
:10137C000B480C490C4A002302E0D458C4500433E7
:10138C00C4188C42F9D3094A094C002301E01360BC
:10139C000432A242FBD301F01DFBFFF7C9FC7047DE
:1013AC00000000206C0000207C2A00086C0000204B
:1013BC001C040020FEE7000080B500AF084B1B6842
:1013CC00074A43F010031360032000F047F90F2085
:1013DC0000F008F8FFF73CFF0023184680BD00BF63
:1013EC000020024080B582B000AF7860124B1A68C2
:1013FC00124B1B7819464FF47A73B3FBF1F3B2FB23
:10140C00F3F3184600F05FF90346002B01D00123DB
:10141C000EE07B680F2B0AD8002279684FF0FF3062
:10142C0000F027F9064A7B681360002300E00123D3
:10143C0018460837BD4680BD6000002068000020BB
:10144C006400002080B400AF054B1B781A46054B96
:10145C001B681344034A136000BFBD4680BC704731
:10146C00680000201804002080B400AF024B1B68F9
:10147C001846BD4680BC70471804002080B584B067
:10148C0000AF7860FFF7F0FFB8607B68FB60FB682B
:10149C00B3F1FF3F05D00A4B1B781A46FB68134487
:1014AC00FB6000BFFFF7E0FF0246BB68D31AFA6887
:1014BC009A42F7D800BF00BF1037BD4680BD00BFB1
:1014CC006800002080B485B000AF78607B6803F0C2
:1014DC000703FB600C4BDB68BB60BA684FF6FF037D
:1014EC001340BB60FB681A02BB68134343F0BF6335
:1014FC0043F40033BB60044ABB68D36000BF1437AD
:10150C00BD4680BC704700BF00ED00E080B400AF6A
:10151C00044BDB681B0A03F007031846BD4680BC6E
:10152C00704700BF00ED00E080B483B000AF03460D
:10153C00FB7197F90730002B0BDBFB7903F01F02D3
:10154C00064997F907305B09012000FA02F241F8CD
:10155C00232000BF0C37BD4680BC704700E100E083
:10156C0080B483B000AF03463960FB7197F9073044
:10157C00002B0ADB3B68DAB20C4997F907301201F1
:10158C00D2B20B4483F800230AE03B68DAB2084974
:10159C00FB7903F00F03043B1201D2B20B441A7611
:1015AC0000BF0C37BD4680BC704700BF00E100E0B7
:1015BC0000ED00E080B489B000AFF860B9607A60EB
:1015CC00FB6803F00703FB61FB69C3F10703042B02
:1015DC0028BF0423BB61FB690433062B02D9FB69CA
:1015EC00033B00E000237B614FF0FF32BB6902FA42
:1015FC0003F3DA43BB681A407B699A404FF0FF3122
:10160C007B6901FA03F3D9437B680B4013431846FB
:10161C002437BD4680BC704780B582B000AF78607F
:10162C007B68013BB3F1807F01D301230FE00A4AB1
:10163C007B68013B53600F214FF0FF30FFF790FFA9
:10164C00054B00229A60044B07221A6000231846AF
:10165C000837BD4680BD00BF10E000E080B582B009
:10166C0000AF78607868FFF72DFF00BF0837BD46E4
:10167C0080BD80B586B000AF0346B9607A60FB735D
:10168C0000237B61FFF742FF78617A68B96878695B
:10169C00FFF790FF024697F90F3011461846FFF7F7
:1016AC005FFF00BF1837BD4680BD80B582B000AF6C
:1016BC000346FB7197F907301846FFF735FF00BF5B
:1016CC000837BD4680BD80B582B000AF78607868C1
:1016DC00FFF7A2FF034618460837BD4680BD000041
:1016EC0080B48BB000AF7860396000237B6200233C
:1016FC003B6248E101227B6A02FA03F3FB613B681F
:10170C001B68FA691340BB61BA69FB699A4240F0E5
:10171C0037813B685B68A34A93425ED0A14A9342EF
:10172C0075D8A14A934258D09F4A93426FD89F4A8A
:10173C00934252D09D4A934269D89D4A93424CD0D1
:10174C009B4A934263D89B4A934246D0994A934210
:10175C005DD8122B2AD8122B59D801A252F823F09B
:10176C00E7170008C1170008D31700081518000860
:10177C001B1800081B1800081B1800081B18000871
:10178C001B1800081B1800081B1800081B18000861
:10179C001B1800081B1800081B1800081B18000851
:1017AC001B180008C9170008DD170008824A93426D
:1017BC0013D02CE03B68DB683B6229E03B68DB68BC
:1017CC0004333B6224E03B68DB6808333B621FE078
:1017DC003B68DB680C333B621AE03B689B68002B70
:1017EC0002D104233B6213E03B689B68012B05D1BB
:1017FC0008233B627B68FA691A6109E008233B62A3
:10180C007B68FA695A6103E000233B6200E000BF89
:10181C00BB69FF2B01D87B6801E07B6804337B61DB
:10182C00BB69FF2B02D87B6A9B0002E07B6A083BFA
:10183C009B003B617B691A680F213B6901FA03F33A
:10184C00DB431A40396A3B6901FA03F31A437B699B
:10185C001A603B685B6803F08053002B00F09080AB
:10186C00564B9B69554A43F001039361534B9B695B
:10187C0003F00103BB60BB68514A7B6A9B080233CF
:10188C0052F82330FB607B6A03F003039B000F22AA
:10189C0002FA03F3DB43FA681340FB607B68494AA6
:1018AC0093420DD07B68484A934207D07B68474AE5
:1018BC00934201D1022304E0032302E0012300E060
:1018CC0000237A6A02F0030292009340FA681343F1
:1018DC00FB603B497B6A9B080233FA6841F8232082
:1018EC003B685B6803F48013002B06D0384B9A6876
:1018FC003749BB6913438B6006E0354B9A68BB696B
:10190C00DB43334913408B603B685B6803F4001383
:10191C00002B06D02E4BDA682D49BB691343CB60E4
:10192C0006E02B4BDA68BB69DB4329491340CB60DB
:10193C003B685B6803F40033002B06D0244B5A68D9
:10194C002349BB6913434B6006E0214B5A68BB69C2
:10195C00DB431F4913404B603B685B6803F48033E7
:10196C00002B06D01A4B1A681949BB6913430B603C
:10197C0006E0174B1A68BB69DB43154913400B6033
:10198C007B6A01337B623B681A687B6A22FA03F339
:10199C00002B7FF4AFAE00BF00BF2C37BD4680BC20
:1019AC00704700BF00003210000031100000221000
:1019BC000000211000001210000011100010024055
:1019CC000000014000080140000C014000100140E3
:1019DC000004014080B485B000AF78600B467B807A
:1019EC007B689A687B881340002B02D00123FB7321
:1019FC0001E00023FB73FB7B18461437BD4680BC0B
:101A0C00704780B483B000AF78600B467B80134680
:101A1C007B707B78002B03D07A887B681A6103E09B
:101A2C007B881A047B681A6100BF0C37BD4680BCEA
:101A3C00704780B485B000AF78600B467B807B68C4
:101A4C00DB68FB607A88FB6813401A04FB68D94397
:101A5C007B880B401A437B681A6100BF1437BD4664
:101A6C0080BC704780B586B000AF78607B68002B77
:101A7C0001D101236CE27B681B6803F00103002B8E
:101A8C0000F08780924B5B6803F00C03042B0CD0A6
:101A9C008F4B5B6803F00C03082B12D18C4B5B68EB
:101AAC0003F48033B3F5803F0BD1894B1B6803F4EF
:101ABC000033002B6CD07B685B68002B68D1012352
:101ACC0046E27B685B68B3F5803F06D1804B1B68B0
:101ADC007F4A43F4803313602EE07B685B68002BF5
:101AEC000CD17B4B1B687A4A23F480331360784B00
:101AFC001B68774A23F4802313601DE07B685B68C6
:101B0C00B3F5A02F0CD1724B1B68714A43F48023A0
:101B1C0013606F4B1B686E4A43F4803313600BE009
:101B2C006B4B1B686A4A23F480331360684B1B6849
:101B3C00674A23F4802313607B685B68002B13D007
:101B4C00FFF792FC386108E0FFF78EFC02463B6918
:101B5C00D31A642B01D90323FAE15D4B1B6803F400
:101B6C000033002BF0D014E0FFF77EFC386108E066
:101B7C00FFF77AFC02463B69D31A642B01D9032385
:101B8C00E6E1534B1B6803F40033002BF0D100E06B
:101B9C0000BF7B681B6803F00203002B63D04C4B27
:101BAC005B6803F00C03002B0BD0494B5B6803F014
:101BBC000C03082B1CD1464B5B6803F48033002BC1
:101BCC0016D1434B1B6803F00203002B05D07B6836
:101BDC001B69012B01D00123BAE13D4B1B6823F09B
:101BEC00F8027B685B69DB00394913430B603AE010
:101BFC007B681B69002B20D0364B01221A60FFF743
:101C0C0033FC386108E0FFF72FFC02463B69D31A1E
:101C1C00022B01D903239BE12D4B1B6803F002031C
:101C2C00002BF0D02A4B1B6823F0F8027B685B6911
:101C3C00DB00274913430B6015E0264B00221A608A
:101C4C00FFF712FC386108E0FFF70EFC02463B6917
:101C5C00D31A022B01D903237AE11D4B1B6803F025
:101C6C000203002BF0D17B681B6803F00803002BE8
:101C7C003AD07B689B69002B19D0174B01221A6054
:101C8C00FFF7F2FB386108E0FFF7EEFB02463B6919
:101C9C00D31A022B01D903235AE10D4B5B6A03F0D3
:101CAC000203002BF0D0012000F09AFA1CE00A4B42
:101CBC0000221A60FFF7D8FB38610FE0FFF7D4FB66
:101CCC0002463B69D31A022B08D9032340E100BF1B
:101CDC000010024000004242800442429E4B5B6A6C
:101CEC0003F00203002BE9D17B681B6803F00403AB
:101CFC00002B00F0A6800023FB75974BDB6903F0EB
:101D0C008053002B0DD1944BDB69934A43F08053E5
:101D1C00D361914BDB6903F08053BB60BB6801233B
:101D2C00FB758E4B1B6803F48073002B18D18B4B07
:101D3C001B688A4A43F480731360FFF795FB386184
:101D4C0008E0FFF791FB02463B69D31A642B01D9DB
:101D5C000323FDE0814B1B6803F48073002BF0D050
:101D6C007B68DB68012B06D17B4B1B6A7A4A43F0FC
:101D7C00010313622DE07B68DB68002B0CD1764BE2
:101D8C001B6A754A23F001031362734B1B6A724A78
:101D9C0023F0040313621CE07B68DB68052B0CD179
:101DAC006D4B1B6A6C4A43F0040313626A4B1B6A4B
:101DBC00694A43F0010313620BE0674B1B6A664AE6
:101DCC0023F001031362644B1B6A634A23F0040380
:101DDC0013627B68DB68002B15D0FFF745FB38617D
:101DEC000AE0FFF741FB02463B69D31A41F2883205
:101DFC00934201D90323ABE0574B1B6A03F0020358
:101E0C00002BEED014E0FFF72FFB38610AE0FFF750
:101E1C002BFB02463B69D31A41F28832934201D91B
:101E2C00032395E04C4B1B6A03F00203002BEED10D
:101E3C00FB7D012B05D1484BDB69474A23F08053CE
:101E4C00D3617B68DB69002B00F08180424B5B68BF
:101E5C0003F00C03082B61D07B68DB69022B46D1A5
:101E6C003F4B00221A60FFF7FFFA386108E0FFF7DA
:101E7C00FBFA02463B69D31A022B01D9032367E014
:101E8C00354B1B6803F00073002BF0D17B681B6A89
:101E9C00B3F5803F08D1304B5B6823F400327B688C
:101EAC009B682D4913434B602B4B5B6823F47412D6
:101EBC007B68196A7B685B6A0B43274913434B6049
:101ECC00274B01221A60FFF7CFFA386108E0FFF7C1
:101EDC00CBFA02463B69D31A022B01D9032337E014
:101EEC001D4B1B6803F00073002BF0D02FE01C4B34
:101EFC0000221A60FFF7B8FA386108E0FFF7B4FA6D
:101F0C0002463B69D31A022B01D9032320E0124B62
:101F1C001B6803F00073002BF0D118E07B68DB69C1
:101F2C00012B01D1012313E00B4B5B68FB60FB68B9
:101F3C0003F480327B681B6A9A4206D1FB6803F477
:101F4C0070127B685B6A9A4201D0012300E0002387
:101F5C0018461837BD4680BD001002400070004086
:101F6C006000424280B584B000AF786039607B6815
:101F7C00002B01D10123D0E06A4B1B6803F007034F
:101F8C003A689A4210D9674B1B6823F007026549DF
:101F9C003B6813430B60634B1B6803F007033A6801
:101FAC009A4201D00123B8E07B681B6803F002035E
:101FBC00002B20D07B681B6803F00403002B05D09A
:101FCC00594B5B68584A43F4E06353607B681B6869
:101FDC0003F00803002B05D0534B5B68524A43F4C3
:101FEC0060535360504B5B6823F0F0027B689B6836
:101FFC004D4913434B607B681B6803F00103002BB6
:10200C0040D07B685B68012B07D1474B1B6803F4FE
:10201C000033002B15D101237FE07B685B68022B1A
:10202C0007D1414B1B6803F00073002B09D101232E
:10203C0073E03D4B1B6803F00203002B01D101231D
:10204C006BE0394B5B6823F003027B685B683649B5
:10205C0013434B60FFF708FAF8600AE0FFF704FA45
:10206C000246FB68D31A41F28832934201D903230A
:10207C0053E02D4B5B6803F00C027B685B689B00A4
:10208C009A42EBD1274B1B6803F007033A689A423C
:10209C0010D2244B1B6823F0070222493B681343E0
:1020AC000B60204B1B6803F007033A689A4201D07F
:1020BC00012332E07B681B6803F00403002B08D07B
:1020CC00194B5B6823F4E0627B68DB6816491343A9
:1020DC004B607B681B6803F00803002B09D0124B84
:1020EC005B6823F460527B681B69DB000E49134369
:1020FC004B6000F021F802460B4B5B681B0903F0A8
:10210C000F030A49CB5C22FA03F3094A1360094B0B
:10211C001B681846FFF766F9002318461037BD46B2
:10212C0080BD00BF0020024000100240502A000871
:10213C00600000206400002080B487B000AF002352
:10214C00FB600023BB6000237B6100237B600023CA
:10215C003B611E4B5B68FB60FB6803F00C03042BBC
:10216C0002D0082B03D027E0194B3B6127E0FB681A
:10217C009B0C03F00F03174AD35C7B60FB6803F4E2
:10218C008033002B10D0114B5B685B0C03F0010308
:10219C00114AD35CBB607B680D4A02FB03F2BB683F
:1021AC00B2FBF3F37B6104E07B680C4A02FB03F3A4
:1021BC007B617B693B6102E0054B3B6100BF3B6986
:1021CC0018461C37BD4680BC704700BF001002404B
:1021DC0000127A00602A0008702A000800093D00ED
:1021EC0080B485B000AF78600A4B1B680A4AA2FB2A
:1021FC0003235B0A7A6802FB03F3FB6000BFFB68F6
:10220C005A1EFA60002BF9D100BF00BF1437BD462F
:10221C0080BC704760000020D34D621080B582B046
:10222C0000AF78607B68002B01D1012341E07B6813
:10223C0093F83D30DBB2002B06D17B68002283F88B
:10224C003C207868FFF736F87B68022283F83D2043
:10225C007B681A687B6804331946104600F056FAFE
:10226C007B68012283F846207B68012283F83E209C
:10227C007B68012283F83F207B68012283F8402091
:10228C007B68012283F841207B68012283F842207D
:10229C007B68012283F843207B68012283F8442069
:1022AC007B68012283F845207B68012283F83D205E
:1022BC00002318460837BD4680BD000080B485B0A9
:1022CC0000AF78607B6893F83D30DBB2012B01D016
:1022DC00012335E07B68022283F83D207B681B6874
:1022EC00DA687B681B6842F00102DA607B681B6865
:1022FC00164A934209D07B681B68B3F1804F04D017
:10230C007B681B68124A934211D17B681B689B68DF
:10231C0003F00703FB60FB68062B10D07B681B687F
:10232C001A687B681B6842F001021A6007E07B6840
:10233C001B681A687B681B6842F001021A60002354
:10234C0018461437BD4680BC704700BF002C0140B6
:10235C000004004080B584B000AF78607B681B68D7
:10236C00DB68FB607B681B681B69BB60BB6803F0A8
:10237C000203002B20D0FB6803F00203002B1BD0C0
:10238C007B681B686FF002021A617B6801221A7766
:10239C007B681B689B6903F00303002B03D07868F0
:1023AC0000F098F905E0786800F08BF9786800F097
:1023BC009AF97B6800221A77BB6803F00403002BA0
:1023CC0020D0FB6803F00403002B1BD07B681B6838
:1023DC006FF004021A617B6802221A777B681B6813
:1023EC009B6903F44073002B03D0786800F072F9FA
:1023FC0005E0786800F065F9786800F074F97B689E
:10240C0000221A77BB6803F00803002B20D0FB686E
:10241C0003F00803002B1BD07B681B686FF00802CD
:10242C001A617B6804221A777B681B68DB6903F0EE
:10243C000303002B03D0786800F04CF905E07868B2
:10244C0000F03FF9786800F04EF97B6800221A77AB
:10245C00BB6803F01003002B20D0FB6803F01003C3
:10246C00002B1BD07B681B686FF010021A617B6815
:10247C0008221A777B681B68DB6903F44073002B16
:10248C0003D0786800F026F905E0786800F019F9B7
:10249C00786800F028F97B6800221A77BB6803F093
:1024AC000103002B0CD0FB6803F00103002B07D0B9
:1024BC007B681B686FF001021A617868FEF74AFDB1
:1024CC00BB6803F08003002B0CD0FB6803F0800387
:1024DC00002B07D07B681B686FF080021A6178684C
:1024EC0000F06FFABB6803F04003002B0CD0FB68C4
:1024FC0003F04003002B07D07B681B686FF0400291
:10250C001A61786800F0F8F8BB6803F02003002B20
:10251C000CD0FB6803F02003002B07D07B681B68F2
:10252C006FF020021A61786800F042FA00BF103791
:10253C00BD4680BD80B584B000AF786039600023A3
:10254C00FB737B6893F83C30012B01D10223B4E080
:10255C007B68012283F83C207B68022283F83D20B3
:10256C007B681B689B68BB60BB6823F07703BB6010
:10257C00BB6823F47F43BB607B681B68BA689A60B6
:10258C003B681B68B3F5005F3ED0B3F5005F00F20B
:10259C008780B3F5805F00F08680B3F5805F7FD8CD
:1025AC00702B1AD0702B7BD8602B50D0602B77D827
:1025BC00502B3CD0502B73D8402B58D0402B6FD87D
:1025CC00302B64D0302B6BD8202B60D0202B67D8CD
:1025DC00002B5CD0102B5AD062E07B6818683B68EB
:1025EC0099683B685A683B68DB6800F06AF97B685D
:1025FC001B689B68BB60BB6843F07703BB607B6860
:10260C001B68BA689A604FE07B6818683B689968E9
:10261C003B685A683B68DB6800F053F97B681B68C1
:10262C009A687B681B6842F480429A603CE07B6845
:10263C0018683B6859683B68DB681A4600F0CAF8B2
:10264C007B681B685021184600F021F92CE07B6850
:10265C0018683B6859683B68DB681A4600F0E8F874
:10266C007B681B686021184600F011F91CE07B6840
:10267C0018683B6859683B68DB681A4600F0AAF892
:10268C007B681B684021184600F001F90CE07B6860
:10269C001A683B681B681946104600F0F8F803E00E
:1026AC000123FB7300E000BF7B68012283F83D200F
:1026BC007B68002283F83C20FB7B18461037BD4614
:1026CC0080BD80B483B000AF786000BF0C37BD46CE
:1026DC0080BC704780B483B000AF786000BF0C370B
:1026EC00BD4680BC704780B483B000AF786000BF3B
:1026FC000C37BD4680BC704780B483B000AF7860A7
:10270C0000BF0C37BD4680BC7047000080B485B05C
:10271C0000AF786039607B681B68FB607B682B4A74
:10272C00934207D07B68B3F1804F03D07B68284A73
:10273C00934208D1FB6823F07003FB603B685B6835
:10274C00FA681343FB607B68204A934207D07B688E
:10275C00B3F1804F03D07B681D4A934208D1FB68CC
:10276C0023F44073FB603B68DB68FA681343FB603F
:10277C00FB6823F080023B685B691343FB607B685A
:10278C00FA681A603B689A687B68DA623B681A6878
:10279C007B689A627B680D4A934203D13B681A6945
:1027AC007B681A637B6801225A617B681B6903F0A2
:1027BC000103002B05D07B681B6923F001027B68A9
:1027CC001A6100BF1437BD4680BC7047002C014015
:1027DC000004004080B487B000AFF860B9607A6044
:1027EC00FB681B6A7B61FB681B6A23F00102FB68B8
:1027FC001A62FB689B693B613B6923F0F0033B6108
:10280C007B681B013A6913433B617B6923F00A0324
:10281C007B617A69BB6813437B61FB683A699A6197
:10282C00FB687A691A6200BF1C37BD4680BC7047D2
:10283C0080B487B000AFF860B9607A60FB681B6A3F
:10284C007B61FB681B6A23F01002FB681A62FB6851
:10285C009B693B613B6923F470433B617B681B03C1
:10286C003A6913433B617B6923F0A0037B61BB682E
:10287C001B017A6913437B61FB683A699A61FB68B7
:10288C007A691A6200BF1C37BD4680BC704780B4A1
:10289C0085B000AF786039607B689B68FB60FB6833
:1028AC0023F07003FB603A68FB68134343F00703A3
:1028BC00FB607B68FA689A6000BF1437BD4680BC29
:1028CC00704780B487B000AFF860B9607A603B6045
:1028DC00FB689B687B617B6923F47F437B613B686E
:1028EC001A027B681A43BB6813437A6913437B61F2
:1028FC00FB687A699A6000BF1C37BD4680BC704784
:10290C0080B485B000AF786039607B6893F83C3058
:10291C00012B01D1022341E07B68012283F83C208A
:10292C007B68022283F83D207B681B685B68FB6038
:10293C007B681B689B68BB60FB6823F07003FB60C3
:10294C003B681B68FA681343FB607B681B68FA687A
:10295C005A607B681B68144A934209D07B681B68D9
:10296C00B3F1804F04D07B681B68104A93420CD1A2
:10297C00BB6823F08003BB603B685B68BA68134399
:10298C00BB607B681B68BA689A607B68012283F81D
:10299C003D207B68002283F83C2000231846143726
:1029AC00BD4680BC704700BF002C014000040040B5
:1029BC0080B483B000AF786000BF0C37BD4680BCDC
:1029CC00704780B483B000AF786000BF0C37BD4651
:1029DC0080BC704770B500260C4D0D4C641BA410C8
:1029EC00A64209D100F022F800260A4D0A4C641BBD
:1029FC00A410A64205D170BD55F8043B984701368A
:102A0C00EEE755F8043B98470136F2E7742A0008C4
:102A1C00742A0008742A0008782A00080346024425
:102A2C00934200D1704703F8011BF9E7F8B500BFDA
:102A3C00F8BC08BC9E467047F8B500BFF8BC08BC93
:042A4C009E467047EB
:102A5000000000000000000001020304060708094E
:102A600002030405060708090A0B0C0D0E0F1010CF
:042A7000010200005F
:042A74003101000824
:042A78000D01000844
:102A7C000100000001000000010000000100000046
:102A8C000100000001000000010000000100000036
:102A9C000100000001000000010000000100000026
:102AAC00F401000005000000030000000500000018
:102ABC000300000001000000020000000300000001
:102ACC0000000000050000000300000002000000F0
:0C2ADC0000127A00100000000100000051
:040000050800137963
:00000001FF
