:020000040800F2
:1000000000280020450D0008E90C0008EF0C00084E
:10001000F50C0008FB0C0008010D000800000000B2
:10002000000000000000000000000000070D0008B4
:10003000130D0008000000001F0D00082B0D000824
:100040008D0D00088D0D00088D0D00088D0D000828
:100050008D0D00088D0D00088D0D00088D0D000818
:100060008D0D00088D0D00088D0D00088D0D000808
:100070008D0D00088D0D00088D0D00088D0D0008F8
:100080008D0D00088D0D00088D0D00088D0D0008E8
:100090008D0D00088D0D00088D0D00088D0D0008D8
:1000A0008D0D00088D0D00088D0D00088D0D0008C8
:1000B0008D0D00088D0D0008000000008D0D00085A
:1000C0008D0D000800000000000000008D0D0008EC
:1000D000000000008D0D00088D0D000800000000DC
:1000E0008D0D00088D0D00088D0D0008000000002A
:1000F0000000000000000000000000000000000000
:0C01000000000000000000005FF808F1A3
:10010C0010B5054C237833B9044B13B10448AFF345
:10011C0000800123237010BD0C00002000000000A3
:10012C00981B000808B5034B1BB103490348AFF3F8
:10013C00008008BD0000000010000020981B000883
:10014C0080B500AFA34B1B68022B67D0022B00F3CA
:10015C009580002B02D0012B30D08FE001224FF480
:10016C0080619D4801F0F2F8002201219A4801F0CB
:10017C00EDF800224FF40061974801F0E7F80022F7
:10018C004021954801F0E2F801221021924801F03B
:10019C00DDF800222021904801F0D8F88F4B1B6825
:1001AC0001338E4A13608D4B1B68042B68DD894B21
:1001BC0001221A60894B00221A6061E000224FF480
:1001CC008061854801F0C2F801220121824801F0CA
:1001DC00BDF800224FF400617F4801F0B7F801220E
:1001EC0040217D4801F0B2F8002210217A4801F03C
:1001FC00ADF800222021784801F0A8F8774B1B6855
:10020C000133764A1360754B1B68022B3ADD714B38
:10021C0002221A60714B00221A6033E000224FF464
:10022C0080616D4801F092F8002201216A4801F0CA
:10023C008DF801224FF40061674801F087F8002225
:10024C004021654801F082F800221021624801F03B
:10025C007DF801222021604801F078F85F4B1B6883
:10026C0001335E4A13605D4B1B68012B0CDD594B4F
:10027C0000221A60594B00221A6005E000BF04E00E
:10028C0000BF02E000BF00E000BF554B1B68022B13
:10029C0067D0022B00F39580002B02D0012B30D0BD
:1002AC008FE001224FF400714B4801F04FF800220F
:1002BC008021494801F04AF800224FF480714648E9
:1002CC0001F044F800220221434801F03FF80122DA
:1002DC000821414801F03AF8002204213E4801F07F
:1002EC0035F8404B1B6801333E4A13603D4B1B688D
:1002FC00022B68DD3A4B01221A603A4B00221A603D
:10030C0061E000224FF40071334801F01FF8002225
:10031C008021314801F01AF801224FF480712E48E7
:10032C0001F014F8002202212B4801F00FF80022F2
:10033C000821294801F00AF801220421264801F07D
:10034C0005F8284B1B680133264A1360254B1B68A4
:10035C00012B3ADD224B02221A60224B00221A603A
:10036C0033E000224FF400711B4800F0EFFF012234
:10037C008021194800F0EAFF00224FF480711648E2
:10038C0000F0E4FF01220221134800F0DFFF0022FD
:10039C000821114800F0DAFF002204210E4800F079
:1003AC00D5FF104B1B6801330E4A13600D4B1B68B5
:1003BC00042B0CDD0A4B00221A600A4B00221A6037
:1003CC0005E000BF04E000BF02E000BF00E000BF9A
:1003DC0000BF80BD30000020000C01402800002030
:1003EC00340000202C00002080B582B000AF786073
:1003FC0039607B68092B00F29D8101A252F823F031
:10040C003504000883040008D10400081F05000807
:10041C006D050008BB050008090600085706000812
:10042C00A5060008F306000800220221CF4800F0C0
:10043C008DFF01220421CD4800F088FF0022082105
:10044C00CA4800F083FF00221021C84800F07EFF4C
:10045C0001224FF48051C64800F078FF00224FF47F
:10046C000051C34800F072FF00224FF48041C04895
:10047C0000F06CFF5FE101220221BC4800F066FF36
:10048C0000220421B94800F061FF00220821B7487E
:10049C0000F05CFF01221021B44800F057FF01224C
:1004AC004FF48051B24800F051FF00224FF400513C
:1004BC00AF4800F04BFF00224FF48041AC4800F0F5
:1004CC0045FF38E100220221A84800F03FFF00223E
:1004DC000421A64800F03AFF00220821A34800F0AE
:1004EC0035FF00221021A14800F030FF01224FF40B
:1004FC0080519F4800F02AFF01224FF400519C4884
:10050C0000F024FF00224FF48041994800F01EFFB8
:10051C0011E100220221954800F018FF002204216D
:10052C00924800F013FF01220821904800F00EFFC2
:10053C00002210218D4800F009FF00224FF4805159
:10054C008B4800F003FF01224FF40051884800F063
:10055C00FDFE00224FF48041854800F0F7FEEAE0F2
:10056C0001220221814800F0F1FE002204217F4883
:10057C0000F0ECFE002208217C4800F0E7FE01228E
:10058C0010217A4800F0E2FE01224FF480517848A5
:10059C0000F0DCFE01224FF40051754800F0D6FE4D
:1005AC0001224FF48041724800F0D0FEC3E00022DB
:1005BC0002216E4800F0CAFE002204216B4800F0B4
:1005CC00C5FE00220821694800F0C0FE002210215F
:1005DC00664800F0BBFE01224FF48051644800F0E5
:1005EC00B5FE01224FF40051614800F0AFFE00222D
:1005FC004FF480415E4800F0A9FE9CE000220221ED
:10060C005A4800F0A3FE00220421584800F09EFE38
:10061C0001220821554800F099FE00221021534870
:10062C0000F094FE00224FF48051514800F08EFEF1
:10063C0001224FF400514E4800F088FE00224FF486
:10064C0080414B4800F082FE75E0012202214748B0
:10065C0000F07CFE00220421444800F077FE0022CA
:10066C000821424800F072FE012210213F4800F0A0
:10067C006DFE01224FF480513D4800F067FE0122CF
:10068C004FF400513A4800F061FE01224FF48041D2
:10069C00374800F05BFE4EE000220221334800F0A8
:1006AC0055FE00220421314800F050FE01220821A1
:1006BC002E4800F04BFE002210212C4800F046FE84
:1006CC0000224FF480512A4800F040FE01224FF4E2
:1006DC000051274800F03AFE00224FF48041244894
:1006EC0000F034FE27E001220221204800F02EFE0B
:1006FC00002204211D4800F029FE002208211B487D
:10070C0000F024FE01221021184800F01FFE0122E7
:10071C004FF48051164800F019FE01224FF400519D
:10072C00134800F013FE01224FF48041104800F0F2
:10073C000DFE00E000BF3B68092B00F2CB8101A24B
:10074C0052F823F081070008D70700082D0800088D
:10075C0083080008D90800082F090008850900083B
:10076C00DB090008310A0008870A0008000801406C
:10077C00000C014000224FF48071D54800F0E6FDDA
:10078C0000224FF40071D24800F0E0FD00224FF43B
:10079C008061CF4800F0DAFD00224FF40061CC48B4
:1007AC0000F0D4FD01224FF48051C94800F0CEFD79
:1007BC0001224FF40051C64800F0C8FD00224FF44E
:1007CC008041C34800F0C2FD85E100224FF48071E6
:1007DC00BF4800F0BBFD00224FF40071BC4800F094
:1007EC00B5FD01224FF48061B94800F0AFFD002245
:1007FC004FF40061B64800F0A9FD00224FF480517F
:10080C00B34800F0A3FD01224FF40051B04800F0B2
:10081C009DFD00224FF48041AD4800F097FD5AE158
:10082C0001224FF48071AA4800F090FD00224FF491
:10083C000071A74800F08AFD00224FF48061A448A3
:10084C0000F084FD01224FF40061A14800F07EFD10
:10085C0001224FF480519E4800F078FD01224FF4A4
:10086C0000519B4800F072FD01224FF480419848E2
:10087C0000F06CFD2FE100224FF48071944800F0E1
:10088C0065FD00224FF40071914800F05FFD0122DC
:10089C004FF480618E4800F059FD00224FF4006146
:1008AC008B4800F053FD00224FF48051884800F033
:1008BC004DFD01224FF40051854800F047FD002208
:1008CC004FF48041824800F041FD04E101224FF4D5
:1008DC0080717F4800F03AFD00224FF400717C4893
:1008EC0000F034FD00224FF48061794800F02EFDB9
:1008FC0001224FF40061764800F028FD01224FF4EC
:10090C008051734800F022FD01224FF400517048D1
:10091C0000F01CFD01224FF480416D4800F016FDE3
:10092C00D9E000224FF48071694800F00FFD0122DC
:10093C004FF40071664800F009FD00224FF480610D
:10094C00634800F003FD00224FF40061604800F0A2
:10095C00FDFC01224FF480515D4800F0F7FC0022B1
:10096C004FF400515A4800F0F1FC00224FF4804142
:10097C00574800F0EBFCAEE001224FF48071544874
:10098C0000F0E4FC00224FF40071514800F0DEFC52
:10099C0000224FF480614E4800F0D8FC01224FF445
:1009AC0000614B4800F0D2FC01224FF480514848C2
:1009BC0000F0CCFC00224FF40051454800F0C6FC7E
:1009CC0000224FF48041424800F0C0FC83E000223A
:1009DC004FF480713E4800F0B9FC00224FF40071D6
:1009EC003B4800F0B3FC00224FF48061384800F023
:1009FC00ADFC00224FF40061354800F0A7FC012249
:100A0C004FF48051324800F0A1FC01224FF4005108
:100A1C002F4800F09BFC00224FF480412C4800F042
:100A2C0095FC58E000224FF48071294800F08EFCB0
:100A3C0000224FF40071264800F088FC01224FF48C
:100A4C008061234800F082FC00224FF400612048B2
:100A5C0000F07CFC00224FF480511D4800F076FC25
:100A6C0001224FF400511A4800F070FC00224FF4A0
:100A7C008041174800F06AFC2DE001224FF4807190
:100A8C00134800F063FC00224FF40071104800F092
:100A9C005DFC00224FF480610D4800F057FC0122F0
:100AAC004FF400610A4800F051FC01224FF48051D0
:100ABC00074800F04BFC01224FF40051044800F0B1
:100ACC0045FC01224FF48041014800F03FFC02E05C
:100ADC000008014000BF00BF0837BD4680BD00BF05
:100AEC0080B500AF0E4B1B685A1C0D490A600D4AAD
:100AFC001268511C0B48016011461846FFF774FC34
:100B0C00074B1B68092B02DD054B00221A60054BB5
:100B1C001B68092B02DD034B00221A6000BF80BD4D
:100B2C00380000203C00002080B500AF00F02AF90E
:100B3C0000F00BF800F044F8FFF702FBFFF7D0FFD2
:100B4C004FF47A7000F080F9F6E780B590B000AF02
:100B5C0007F1180328220021184601F00FF83B1D5D
:100B6C0000221A605A609A60DA601A610223BB6133
:100B7C000123BB621023FB6200237B6307F1180384
:100B8C00184600F0FBFB0346002B01D000F06EF87A
:100B9C000F237B600023BB600023FB6000233B61C1
:100BAC0000237B613B1D0021184600F067FE0346C5
:100BBC00002B01D000F05AF800BF4037BD4680BD75
:100BCC0080B586B000AF07F1080300221A605A60A6
:100BDC009A60DA60224B9B69214A43F004039361CB
:100BEC001F4B9B6903F004037B607B681C4B9B6968
:100BFC001B4A43F008039361194B9B6903F00803EC
:100C0C003B603B68002247F6FE71164800F09EFBE5
:100C1C00002247F6FF71144800F098FB47F6FE736C
:100C2C00BB600123FB6000233B6102237B6107F166
:100C3C00080319460B4800F00FFA47F6FF73BB6028
:100C4C000123FB6000233B6102237B6107F1080356
:100C5C001946054800F000FA00BF1837BD4680BDA4
:100C6C000010024000080140000C014080B400AFAD
:100C7C0072B600BFFEE7000080B485B000AF154B24
:100C8C009B69144A43F001039361124B9B6903F077
:100C9C000103BB60BB680F4BDB690E4A43F080530A
:100CAC00D3610C4BDB6903F080537B607B680A4B90
:100CBC005B68FB60FB6823F0E063FB60FB6843F060
:100CCC008063FB60044AFB68536000BF1437BD4669
:100CDC0080BC7047001002400000014080B400AF9F
:100CEC00FEE780B400AFFEE780B400AFFEE780B44F
:100CFC0000AFFEE780B400AFFEE780B400AF00BFEA
:100D0C00BD4680BC704780B400AF00BFBD4680BC00
:100D1C00704780B400AF00BFBD4680BC704780B543
:100D2C0000AF00F075F800BF80BD80B400AF00BF0D
:100D3C00BD4680BC70470000FFF7F7FF0B480C491D
:100D4C000C4A002302E0D458C4500433C4188C421B
:100D5C00F9D3094A094C002301E013600432A24282
:100D6C00FBD300F0E7FEFFF7DFFE7047000000202A
:100D7C000C000020DC1B00080C00002044000020AC
:100D8C00FEE7000080B500AF084B1B68074A43F034
:100D9C0010031360032000F02BF90F2000F008F86B
:100DAC00FFF76AFF0023184680BD00BF00200240F9
:100DBC0080B582B000AF7860124B1A68124B1B786A
:100DCC0019464FF47A73B3FBF1F3B2FBF3F3184605
:100DDC0000F035F90346002B01D001230EE07B68AF
:100DEC000F2B0AD8002279684FF0FF3000F00BF976
:100DFC00064A7B681360002300E00123184608377D
:100E0C00BD4680BD0000002008000020040000202A
:100E1C0080B400AF054B1B781A46054B1B68134476
:100E2C00034A136000BFBD4680BC70470800002019
:100E3C004000002080B400AF024B1B681846BD4632
:100E4C0080BC70474000002080B584B000AF786053
:100E5C00FFF7F0FFB8607B68FB60FB68B3F1FF3F06
:100E6C0005D00A4B1B781A46FB681344FB6000BF85
:100E7C00FFF7E0FF0246BB68D31AFA689A42F7D82C
:100E8C0000BF00BF1037BD4680BD00BF080000206A
:100E9C0080B485B000AF78607B6803F00703FB601B
:100EAC000C4BDB68BB60BA684FF6FF031340BB60AA
:100EBC00FB681A02BB68134343F0BF6343F400336F
:100ECC00BB60044ABB68D36000BF1437BD4680BC0E
:100EDC00704700BF00ED00E080B400AF044BDB684E
:100EEC001B0A03F007031846BD4680BC704700BFC1
:100EFC0000ED00E080B483B000AF03463960FB71B5
:100F0C0097F90730002B0ADB3B68DAB20C4997F9EA
:100F1C0007301201D2B20B4483F800230AE03B687D
:100F2C00DAB20849FB7903F00F03043B1201D2B289
:100F3C000B441A7600BF0C37BD4680BC704700BF0F
:100F4C0000E100E000ED00E080B489B000AFF86093
:100F5C00B9607A60FB6803F00703FB61FB69C3F1BE
:100F6C000703042B28BF0423BB61FB690433062B46
:100F7C0002D9FB69033B00E000237B614FF0FF3299
:100F8C00BB6902FA03F3DA43BB681A407B699A40E7
:100F9C004FF0FF317B6901FA03F3D9437B680B40B7
:100FAC00134318462437BD4680BC704780B582B0C9
:100FBC0000AF78607B68013BB3F1807F01D30123E4
:100FCC000FE00A4A7B68013B53600F214FF0FF3062
:100FDC00FFF790FF054B00229A60044B07221A6022
:100FEC00002318460837BD4680BD00BF10E000E066
:100FFC0080B582B000AF78607868FFF749FF00BF1A
:10100C000837BD4680BD80B586B000AF0346B960D9
:10101C007A60FB7300237B61FFF75EFF78617A686F
:10102C00B9687869FFF790FF024697F90F301146BF
:10103C001846FFF75FFF00BF1837BD4680BD80B56F
:10104C0082B000AF78607868FFF7B0FF03461846AF
:10105C000837BD4680BD000080B48BB000AF78600F
:10106C00396000237B6200233B6248E101227B6AEA
:10107C0002FA03F3FB613B681B68FA691340BB611E
:10108C00BA69FB699A4240F037813B685B68A34AB6
:10109C0093425ED0A14A934275D8A14A934258D04C
:1010AC009F4A93426FD89F4A934252D09D4A934293
:1010BC0069D89D4A93424CD09B4A934263D89B4A31
:1010CC00934246D0994A93425DD8122B2AD8122BC0
:1010DC0059D801A252F823F05F1100083911000809
:1010EC004B1100088D110008931100089311000892
:1010FC009311000893110008931100089311000834
:10110C009311000893110008931100089311000823
:10111C009311000893110008931100084111000865
:10112C0055110008824A934213D02CE03B68DB68CF
:10113C003B6229E03B68DB6804333B6224E03B689C
:10114C00DB6808333B621FE03B68DB680C333B62B7
:10115C001AE03B689B68002B02D104233B6213E02E
:10116C003B689B68012B05D108233B627B68FA69BD
:10117C001A6109E008233B627B68FA695A6103E053
:10118C0000233B6200E000BFBB69FF2B01D87B68EA
:10119C0001E07B6804337B61BB69FF2B02D87B6A5F
:1011AC009B0002E07B6A083B9B003B617B691A68F1
:1011BC000F213B6901FA03F3DB431A40396A3B699F
:1011CC0001FA03F31A437B691A603B685B6803F00E
:1011DC008053002B00F09080564B9B69554A43F08E
:1011EC0001039361534B9B6903F00103BB60BB6824
:1011FC00514A7B6A9B08023352F82330FB607B6AAE
:10120C0003F003039B000F2202FA03F3DB43FA689B
:10121C001340FB607B68494A93420DD07B68484A77
:10122C00934207D07B68474A934201D1022304E0E2
:10123C00032302E0012300E000237A6A02F0030298
:10124C0092009340FA681343FB603B497B6A9B080E
:10125C000233FA6841F823203B685B6803F480137F
:10126C00002B06D0384B9A683749BB6913438B6007
:10127C0006E0354B9A68BB69DB43334913408B60FE
:10128C003B685B6803F40013002B06D02E4BDA6826
:10129C002D49BB691343CB6006E02B4BDA68BB6965
:1012AC00DB4329491340CB603B685B6803F4003394
:1012BC00002B06D0244B5A682349BB6913434B605F
:1012CC0006E0214B5A68BB69DB431F4913404B6056
:1012DC003B685B6803F48033002B06D01A4B1A680A
:1012EC001949BB6913430B6006E0174B1A68BB69BD
:1012FC00DB43154913400B607B6A01337B623B680F
:10130C001A687B6A22FA03F3002B7FF4AFAE00BF9E
:10131C0000BF2C37BD4680BC704700BF00003210A8
:10132C0000003110000022100000211000001210EB
:10133C0000001110001002400000014000080140A4
:10134C00000C0140001001400004014080B483B047
:10135C0000AF78600B467B8013467B707B78002B4C
:10136C0003D07A887B681A6103E07B881A047B6857
:10137C001A6100BF0C37BD4680BC704780B586B083
:10138C0000AF78607B68002B01D101236CE27B6895
:10139C001B6803F00103002B00F08780924B5B6805
:1013AC0003F00C03042B0CD08F4B5B6803F00C0385
:1013BC00082B12D18C4B5B6803F48033B3F5803F60
:1013CC000BD1894B1B6803F40033002B6CD07B686A
:1013DC005B68002B68D1012346E27B685B68B3F540
:1013EC00803F06D1804B1B687F4A43F480331360E7
:1013FC002EE07B685B68002B0CD17B4B1B687A4A18
:10140C0023F480331360784B1B68774A23F48023D2
:10141C0013601DE07B685B68B3F5A02F0CD1724B99
:10142C001B68714A43F4802313606F4B1B686E4A30
:10143C0043F4803313600BE06B4B1B686A4A23F454
:10144C0080331360684B1B68674A23F48023136056
:10145C007B685B68002B13D0FFF7ECFC386108E06D
:10146C00FFF7E8FC02463B69D31A642B01D903232E
:10147C00FAE15D4B1B6803F40033002BF0D014E051
:10148C00FFF7D8FC386108E0FFF7D4FC02463B6953
:10149C00D31A642B01D90323E6E1534B1B6803F4E5
:1014AC000033002BF0D100E000BF7B681B6803F019
:1014BC000203002B63D04C4B5B6803F00C03002B36
:1014CC000BD0494B5B6803F00C03082B1CD1464B2B
:1014DC005B6803F48033002B16D1434B1B6803F07D
:1014EC000203002B05D07B681B69012B01D0012363
:1014FC00BAE13D4B1B6823F0F8027B685B69DB00AB
:10150C00394913430B603AE07B681B69002B20D0F0
:10151C00364B01221A60FFF78DFC386108E0FFF7AB
:10152C0089FC02463B69D31A022B01D903239BE1A8
:10153C002D4B1B6803F00203002BF0D02A4B1B68C9
:10154C0023F0F8027B685B69DB00274913430B60CF
:10155C0015E0264B00221A60FFF76CFC386108E09E
:10156C00FFF768FC02463B69D31A022B01D903230F
:10157C007AE11D4B1B6803F00203002BF0D17B6852
:10158C001B6803F00803002B3AD07B689B69002B87
:10159C0019D0174B01221A60FFF74CFC386108E098
:1015AC00FFF748FC02463B69D31A022B01D90323EF
:1015BC005AE10D4B5B6A03F00203002BF0D00120C3
:1015CC0000F09AFA1CE00A4B00221A60FFF732FC7A
:1015DC0038610FE0FFF72EFC02463B69D31A022B51
:1015EC0008D9032340E100BF001002400000424232
:1015FC00800442429E4B5B6A03F00203002BE9D14C
:10160C007B681B6803F00403002B00F0A68000230A
:10161C00FB75974BDB6903F08053002B0DD1944B7A
:10162C00DB69934A43F08053D361914BDB6903F040
:10163C008053BB60BB680123FB758E4B1B6803F4A6
:10164C008073002B18D18B4B1B688A4A43F4807330
:10165C001360FFF7EFFB386108E0FFF7EBFB024686
:10166C003B69D31A642B01D90323FDE0814B1B6822
:10167C0003F48073002BF0D07B68DB68012B06D160
:10168C007B4B1B6A7A4A43F0010313622DE07B68A3
:10169C00DB68002B0CD1764B1B6A754A23F00103D7
:1016AC001362734B1B6A724A23F0040313621CE02F
:1016BC007B68DB68052B0CD16D4B1B6A6C4A43F0C5
:1016CC00040313626A4B1B6A694A43F001031362F9
:1016DC000BE0674B1B6A664A23F001031362644BF1
:1016EC001B6A634A23F0040313627B68DB68002BDC
:1016FC0015D0FFF79FFB38610AE0FFF79BFB024612
:10170C003B69D31A41F28832934201D90323ABE0EF
:10171C00574B1B6A03F00203002BEED014E0FFF7CB
:10172C0089FB38610AE0FFF785FB02463B69D31A57
:10173C0041F28832934201D9032395E04C4B1B6A4A
:10174C0003F00203002BEED1FB7D012B05D1484B9E
:10175C00DB69474A23F08053D3617B68DB69002B3C
:10176C0000F08180424B5B6803F00C03082B61D0C6
:10177C007B68DB69022B46D13F4B00221A60FFF7D6
:10178C0059FB386108E0FFF755FB02463B69D31A59
:10179C00022B01D9032367E0354B1B6803F0007360
:1017AC00002BF0D17B681B6AB3F5803F08D1304B1E
:1017BC005B6823F400327B689B682D4913434B60B4
:1017CC002B4B5B6823F474127B68196A7B685B6A29
:1017DC000B43274913434B60274B01221A60FFF739
:1017EC0029FB386108E0FFF725FB02463B69D31A59
:1017FC00022B01D9032337E01D4B1B6803F0007348
:10180C00002BF0D02FE01C4B00221A60FFF712FBCC
:10181C00386108E0FFF70EFB02463B69D31A022B36
:10182C0001D9032320E0124B1B6803F00073002B3B
:10183C00F0D118E07B68DB69012B01D1012313E0A7
:10184C000B4B5B68FB60FB6803F480327B681B6AA4
:10185C009A4206D1FB6803F470127B685B6A9A4269
:10186C0001D0012300E0002318461837BD4680BD87
:10187C0000100240007000406000424280B584B00D
:10188C0000AF786039607B68002B01D10123D0E078
:10189C006A4B1B6803F007033A689A4210D9674BEE
:1018AC001B6823F0070265493B6813430B60634BCD
:1018BC001B6803F007033A689A4201D00123B8E091
:1018CC007B681B6803F00203002B20D07B681B682D
:1018DC0003F00403002B05D0594B5B68584A43F4C2
:1018EC00E06353607B681B6803F00803002B05D092
:1018FC00534B5B68524A43F460535360504B5B68E4
:10190C0023F0F0027B689B684D4913434B607B6866
:10191C001B6803F00103002B40D07B685B68012B34
:10192C0007D1474B1B6803F40033002B15D101235F
:10193C007FE07B685B68022B07D1414B1B6803F08F
:10194C000073002B09D1012373E03D4B1B6803F09E
:10195C000203002B01D101236BE0394B5B6823F0B0
:10196C0003027B685B68364913434B60FFF762FAEE
:10197C00F8600AE0FFF75EFA0246FB68D31A41F200
:10198C008832934201D9032353E02D4B5B6803F05B
:10199C000C027B685B689B009A42EBD1274B1B685F
:1019AC0003F007033A689A4210D2244B1B6823F0C9
:1019BC00070222493B6813430B60204B1B6803F062
:1019CC0007033A689A4201D0012332E07B681B6816
:1019DC0003F00403002B08D0194B5B6823F4E0627E
:1019EC007B68DB68164913434B607B681B6803F00C
:1019FC000803002B09D0124B5B6823F460527B6800
:101A0C001B69DB000E4913434B6000F021F80246C2
:101A1C000B4B5B681B0903F00F030A49CB5C22FAE2
:101A2C0003F3094A1360094B1B681846FFF7C0F90A
:101A3C00002318461037BD4680BD00BF0020024071
:101A4C0000100240B01B0008000000200400002021
:101A5C0080B487B000AF0023FB600023BB60002381
:101A6C007B6100237B6000233B611E4B5B68FB604A
:101A7C00FB6803F00C03042B02D0082B03D027E0E7
:101A8C00194B3B6127E0FB689B0C03F00F03174AD3
:101A9C00D35C7B60FB6803F48033002B10D0114BBC
:101AAC005B685B0C03F00103114AD35CBB607B6881
:101ABC000D4A02FB03F2BB68B2FBF3F37B6104E05B
:101ACC007B680C4A02FB03F37B617B693B6102E0A0
:101ADC00054B3B6100BF3B6918461C37BD4680BCBB
:101AEC00704700BF0010024000127A00C01B0008B3
:101AFC00D01B000800093D0080B485B000AF7860B1
:101B0C000A4B1B680A4AA2FB03235B0A7A6802FB96
:101B1C0003F3FB6000BFFB685A1EFA60002BF9D17F
:101B2C0000BF00BF1437BD4680BC704700000020CA
:101B3C00D34D621070B500260C4D0D4C641BA410D7
:101B4C00A64209D100F022F800260A4D0A4C641B6B
:101B5C00A410A64205D170BD55F8043B9847013638
:101B6C00EEE755F8043B98470136F2E7D41B000822
:101B7C00D41B0008D41B0008D81B000803460244E1
:101B8C00934200D1704703F8011BF9E7F8B500BF89
:101B9C00F8BC08BC9E467047F8B500BFF8BC08BC42
:041BAC009E4670479A
:101BB00000000000000000000102030406070809FD
:101BC00002030405060708090A0B0C0D0E0F10107E
:041BD000010200000E
:041BD40031010008D3
:041BD8000D010008F3
:0C1BDC0000127A00100000000100000060
:0400000508000D459D
:00000001FF
